:100000000C94B9030C94F1030C94F1030C94F103D8
:100010000C94F1030C94F1030C94F1030C94F10390
:100020000C94F1030C94F1030C9456220C941222BC
:100030000C9453230C94F1030C94F1030C94F103EE
:100040000C94F1030C94F1030C94F1030C94F10360
:100050000C94F1030C942F230C94F1030C94F103F2
:100060000C94F1030C94F1030C94F1030C94F10340
:100070000C94F1030C94F1030C94F1030C94F10330
:100080000C94F1030C94F1030C94F1030C94F10320
:100090000C94F1030C94F1030C94F1030C94F10310
:1000A0000C94F1030C94F1030C94F1030501090283
:1000B000A10185020901A1000509190129081500FE
:1000C0002501950875018102050109300931158165
:1000D000257F95027508810609381581257F9501D0
:1000E00075088106050C0A38021581257F95017572
:1000F000088106C0C005010980A101850319012AF4
:10010000B700150126B700950175108100C0050CD8
:100110000901A101850419012AA002150126A002E6
:10012000950175108100C005010906A1018506052C
:100130000719E029E71500250195087501810205D9
:1001400007190029EF1500250195F07501810205B9
:10015000081901290595057501910295017503910D
:1001600001C00660FF0961A1010962150026FF00B8
:100170009520750881020963150026FF00952075FA
:10018000089102C005010906A101050719E029E748
:1001900015002501950875018102950175088101F9
:1001A0000507190029FF150026FF0095067508812F
:1001B000000508190129059505750191029501753C
:1001C000039101C0000000000000000000000000DA
:1001D000000000000000000000000000000000001F
:1001E00000000000000000007E0F00D4FFFFFFC7EA
:1001F0000000007800000000000000002A2B28000A
:1002000000000000000000000000000000000029C5
:10021000000000002C1E3420212224342627252E05
:10022000362D3738271E1F2021222324252633333D
:10023000362E37381F0405060708090A0B0C0D0E69
:100240000F101112131415161718191A1B1C1D2F35
:100250003130232D350405060708090A0B0C0D0E55
:100260000F101112131415161718191A1B1C1D2F15
:100270003130354C00047F3F1F64321464321478EF
:100280003C1E1E140A0500010101010101010101CA
:100290000202020202020202020303030303030337
:1002A0000304040404040404050505050506060604
:1002B0000606070707070708080808090909090AC1
:1002C0000A0A0B0B0B0C0C0C0D0D0D0E0E0E0F0F66
:1002D0000F101011111112121313141415151616F4
:1002E0001717181819191A1A1B1B1C1D1D1E1E1F63
:1002F0002020212222232424252626272829292AB2
:100300002B2C2D2D2E2F30313232333435363738D9
:10031000393A3B3C3D3E3F404142434445464748D5
:10032000494A4C4D4E4F50515354555658595A5BAB
:100330005D5E5F616264656668696B6C6D6F70724B
:10034000737577787A7B7D7E8082838587888A8CB7
:100350008E8F91939596989A9C9EA0A2A3A5A7A9EB
:10036000ABADAFB1B3B5B7BABCBEC0C2C4C6C9CBE2
:10037000CDCFD1D4D6D8DBDDDFE2E4E7E9EBEEF098
:10038000F3F5F8FAFDFFFFAA7F5540222325262822
:10039000292A2C2D2F3032333536383A3B3D3E401A
:1003A00042434547494A4C4E5051535557595A5C60
:1003B0005E6062646668696B6D6F71737577797B77
:1003C0007D7F81838587898A8C8E90929496989A76
:1003D0009C9E9FA1A3A5A7A8AAACAEAFB1B3B4B68B
:1003E000B8B9BBBCBEBFC1C2C3C5C6C7C9CACBCCE6
:1003F000CDCED0D1D2D2D3D4D5D6D7D7D8D9D9DAB9
:10040000DADBDBDBDCDCDCDCDCDDDDDDDDDCDCDC2D
:10041000DCDCDBDBDBDADAD9D9D8D7D7D6D5D4D355
:10042000D2D2D1D0CECDCCCBCAC9C7C6C5C3C2C12A
:10043000BFBEBCBBB9B8B6B4B3B1AFAEACAAA8A787
:10044000A5A3A19F9E9C9A98969492908E8C8A893F
:10045000878583817F7D7B79777573716F6D6B691C
:1004600068666462605E5C5A5957555351504E4CF1
:100470004A4947454342403E3D3B3A3836353332A0
:10048000302F2D2C2A29282625232229001E001F43
:100490000020002100220023002400250026002740
:1004A000002D002E004C004B002B0014001A0008F9
:1004B00000150017001C0018000C00120013002F7C
:1004C0000030002A004E0039000400160007000921
:1004D000000A000B000D000E000F0033003400284E
:1004E0000028004A00E1001D001B0006001900055D
:1004F00000110010003600370038003100E50052CE
:10050000004D00E000E300E200C25CC35C2C002C64
:10051000002C00E600E7000151E400500051004FBC
:100520000001003A003B003C003D003E003F00401F
:100530000041004200430044004500010001000169
:1005400000010001000100010001000100010001A3
:100550000001000100010001000100010001000193
:1005600000C25CC35CC55CC65CC75CC85CC95CCAD5
:100570005C010001000100010001000100AA00A8C7
:1005800000A90001000100010001000100010001BB
:100590000001000100F00001000100010001000164
:1005A000000100005C0100010001000100010001E8
:1005B00000F200F100F30001000100010001000160
:1005C0000001000100010001000100010001000123
:1005D0000001000100010001000100010001000113
:1005E0000001000100010001000100010001000103
:1005F00000010001000100010001000100010001F3
:1006000000010001000100010001000100010001E2
:1006100000010001000100010001000100010001D2
:1006200000010001000100010001000100010001C2
:1006300000010001000100010001000100010001B2
:1006400000010001000100010001000100010001A2
:100650000001000100010001000100010001000192
:100660000001000100010001000100010001000182
:100670000001000100010001000100010001000172
:100680000001000100010001000100010001000162
:100690000001000100010001000100010001000152
:1006A0000001000100010001000100010001000142
:1006B0000001000100010001000100010001000132
:1006C0000001000100010001000100010001000122
:1006D0000001000100010001000100010001000112
:1006E00000010009025B00030100A0FA09040000F8
:1006F0000103010100092111010001224000070549
:10070000810308000109040100020300000009211F
:1007100011010001222200070582032000010705C4
:100720000303200001090402000103000000092165
:100730001101000122B60007058403200001120107
:100740000002000000082045606001000102000175
:1007500010035200470042003700350048005300A4
:1007600000000A034E0050004B0043000000040349
:10077000090411241FBECFEFDAE0DEBFCDBF04B6FF
:1007800003FE18C08091B8039091B903A091BA03F9
:10079000B091BB038730904BA740B04B59F41092F7
:1007A000B8031092B9031092BA031092BB03E0E0B1
:1007B000F8E3099511E0A0E0B1E0EAEDF4E502C04C
:1007C00005900D92A439B107D9F723E0A4E9B1E06F
:1007D00001C01D92A83BB207E1F70E947A230C9456
:1007E000422A0C940000E8EDF0E080818E7F808347
:1007F0001092E2001092DA001092E100A0EEB0E058
:100800008C9181608C9380818F77808319BCA7ED58
:10081000B0E08C918E7F8C9380818F7E808310924C
:10082000850308952091E4003091E50095E6A90143
:100830002091EC00822F817020FF06C08091E8009B
:1008400080FF06C080E008952091E80022FD1AC0D4
:100850008091AA03882389F0853089F08091EB008C
:1008600085FD0FC02091E4003091E5004217530749
:10087000F9F29150E1F684E0089582E0089583E072
:10088000089581E00895EF92FF920F931F93CF9305
:100890007C018B010E941204C82F811117C0809126
:1008A000E80085FD0BC08091E8008E778093E8001A
:1008B0000E941204882399F3C82F08C0F701819180
:1008C0007F018093F1000150110949F78C2FCF91DE
:1008D0001F910F91FF90EF9008958091AC0387FFD7
:1008E00013C08091E80082FF06C08091E8008B77FA
:1008F0008093E80004C08091AA038111F2CF08958B
:100900008091AA038823D9F38091E80080FFF8CF73
:100910008091E8008E77ECCF982F9093E900242FF8
:10092000762F50E0891731F07091EC002091ED00A6
:100930005091F00021FD07C09F5F973071F78093C1
:10094000E90081E008953091EB003E7F3093EB00A9
:100950003091ED003D7F3093ED003091EB00316040
:100960003093EB007093EC002093ED005093F00077
:100970002091EE0027FDE0CF80E00895CF92DF9236
:10098000EF92FF920F931F93CF93DF93C8EDD0E0C8
:1009900088818F7E8883E7EDF0E0808181608083AD
:1009A00084E082BF81E08093850388818E7F888385
:1009B00002EE10E0F80110821092DA0081EEC82EEB
:1009C000D12CF601108288818F7788838881806896
:1009D000888388818F7D888319BC1092AA03109226
:1009E000AB031092A9031092A80390EEE92EF12C0C
:1009F000F70180818B7F808388818160888342E0DA
:100A000060E080E00E948C04F60180818E7F80830C
:100A1000F801808181608083808188608083F70114
:100A200080818E7F8083888180618883DF91CF91F0
:100A30001F910F91FF90EF90DF90CF900895FC01F0
:100A40008091B2039091B30386179707A0F06115C8
:100A5000710529F49091E8009E779093E80090E06A
:100A60006115710551F4911108C08091E80082FF71
:100A700034C080E00895BC01F2CF8091AA0388239E
:100A8000C1F18530C1F18091E80083FD30C08091D3
:100A9000E80082FDEACF8091E80080FFE1CF8091FD
:100AA000F3002091F200382F6115710519F02830FC
:100AB000310558F091E02830310509F090E020919F
:100AC000E8002E772093E800CBCF81918093F1004E
:100AD000615071092F5F3F4FE7CF8091AA038823B0
:100AE00041F0853041F08091E80083FFBECF81E086
:100AF000089582E0089583E0089508958091870322
:100B000008959C014FB7F89480917C0390917D03E8
:100B1000A0917E03B0917F034FBF821B930B08957A
:100B20002FB7F89480917C0390917D03A0917E0370
:100B3000B0917F032FBF08952091790330917A03FC
:100B40002817390771F090937A0380937903E09125
:100B50007703F0917803309721F00084F185E02D40
:100B60000994089520917503309176032817390769
:100B700071F09093760380937503E0917703F09181
:100B80007803309721F00680F781E02D09940895CD
:100B9000E0917703F0917803309721F00190F08194
:100BA000E02D099480E008958F929F92AF92BF92BA
:100BB000EF92FF920F931F93CF93DF938430B8F59A
:100BC000811136C090918000977F909380002F987C
:100BD000A0918600B0918700282F30E00E94AB29B9
:100BE00023E030E040E050E00E94742989019A013E
:100BF00080918600909187006CE070E00E944C2903
:100C000060177107D8F0C80169E070E00E944C29B4
:100C100070938D0060938C00DF91CF911F910F91A5
:100C2000FF90EF90BF90AF909F908F90089583E0DA
:100C300090918000986090938000CACF8091860048
:100C400090918700E0908600F0908700E091860008
:100C5000F0918700C6E0D0E0BE010E944C29060F4B
:100C6000171F211D311D4801590185E0880C991C71
:100C7000AA1CBB1C8A95D1F7C701BE010E944C2952
:100C80009F0150E040E0260F371F411D511DC50157
:100C9000B4010E94742949015A01E0918600F09143
:100CA0008700CA01B9010E942E299B01AC01DF0116
:100CB0000E94C1299B01AC01C501B4010E942E29EB
:100CC0002FE096958795779567952A95D1F70091AE
:100CD00086001091870030E020E0061717072807EC
:100CE000390708F095CF609186007091870090CF0A
:100CF000282F220F220F220F909174039770922BAE
:100D000090937403987F21E009F420E0909174039C
:100D100020FB90F9909374030C94D405FA0181118F
:100D200001C0FB010994089580916F03982F9E7F65
:100D300061F48170826080936F03809172038739C0
:100D400018F086E98093720308958A34B0F38170B5
:100D50008864F1CFAF92BF92DF92EF92FF920F9330
:100D60001F93CF93DF93082F162FE901E42FF0E0B4
:100D7000EA57FD4F611110C0E4915E2F4E2F498359
:100D8000E8835A83DF91CF911F910F91FF90EF90ED
:100D9000DF90BF90AF900895E62EF12C4491D42EB1
:100DA000E42FF0E026E0829FC00111242FEF30E015
:100DB000B9010E944C29802F90E0880F991F55E5BA
:100DC000569FD001579FB00D11248A1B9B0B982F63
:100DD000990F890F5901AE18BF08AE9ED001AF9E82
:100DE000B00DBE9EB00D11245B2F189F8001112401
:100DF000012F11275901A01AB10AAE9E8001AF9EA2
:100E0000100DBE9E100D11245901A81AB108AE9CF8
:100E1000C001AF9C900DBE9C900D1124892F992785
:100E2000281B390B2E9FC0012F9F900D3E9F900DC8
:100E30001124E92F62307105A1F050F4611571059C
:100E400009F49DCF6130710581F0EB2F512F97CFC1
:100E50006430710569F080F06630710509F48FCF58
:100E6000F4CFE42F4B2F592F8ACFE42F412F87CF78
:100E7000EB2F542F492F83CF4B2F5D2DE12F7FCFA9
:100E80000E9490059C019091610280916202982BD2
:100E900021F030935E0220935D0290916302809175
:100EA0006402982B21F030935C0220935B02E09166
:100EB0007703F0917803309749F082E080935F02E6
:100EC0000480F581E02D8FE592E00994089540912A
:100ED0006102803F59F48091620287FF0DC0109239
:100EE000620241110BC01092590208C0813F81F487
:100EF0008091620218169CF3442381F08091630272
:100F000090916402892B09F05AC0109258020895FA
:100F1000823F49F447FFF0CF109261028091620254
:100F20008111ECCFE0CF833F19F41416ACF3E4CF7A
:100F300090916302893F29F41916F4F61092630226
:100F4000DBCF8A3F19F497FFD7CFF8CF9091640297
:100F50008B3F29F497FFD0CF10926402CDCF8C3F06
:100F600019F41916CCF3C8CF9CE0980F953090F483
:100F7000845F990B21E030E0B90102C0660F771F52
:100F80008A95E2F7CB018095909160028923809346
:100F90006002B2CF8D3F31F480915A028E7F8093F0
:100FA0005A02AACF8E3F21F480915A028D7FF7CF4B
:100FB0008F3F09F0A1CF80915A028B7FF0CF089527
:100FC00080915A0280FD16C081FD16C082FD16C0B8
:100FD000809158028823A1F0883280F428E0829F13
:100FE000C001112468E270E00E946029862F672BFF
:100FF00039F0089582E0089584E0089588E0089526
:1010000081E0089580915A0280FD14C081FD14C0D2
:1010100082FD16C080915902882381F08E3180F4C0
:1010200020E5829FC00111246EE170E00E946029DA
:10103000862F089584E1089588E2089588E0089550
:1010400080E50895803F31F40E94020881958093E5
:1010500062020895813F19F40E940208F8CF823F8E
:1010600031F40E9402088195809361020895833FC4
:1010700019F40E940208F8CF893F29F40E94E00782
:101080008093630208958A3F21F40E94E0078195CE
:10109000F7CF8B3F31F40E94E00781958093640283
:1010A00008958C3F19F40E94E007F8CF9CE0980F58
:1010B000953070F4845F990B21E030E001C0220F7D
:1010C0008A95EAF780916002822B809360020895EE
:1010D0008D3F31F480915A02816080935A020895C5
:1010E0008E3F21F480915A028260F7CF8F3FB9F78B
:1010F00080915A028460F1CF80E00895F894E82F3F
:10110000E295EF70F0E031A1282F2F7081E090E0A0
:1011100001C0880F2A95EAF7982F9095932391A301
:1011200092A1892B82A3789408959091800392FFD5
:1011300006C0282F28712830F9F4877F846093FF38
:1011400006C0282F28712831F1F4877E8461209110
:10115000810320FF06C0382F38713830D9F4877FDB
:10116000816021FF06C0282F28712831D1F4877EA5
:10117000816194FD877E0895282F24712430F9F62B
:101180008B7F8860DCCF282F2471243101F78B7E80
:101190008861DDCF382F3171313019F78E7F88604B
:1011A000E0CF282F2171213121F78E7E8861E1CF98
:1011B000CF93DF93EC0182389105A9F1D8F5813303
:1011C000910509F496C048F58932910509F48AC061
:1011D0008A9709F495C0C11521E5D20708F0BCC073
:1011E000C11530E5D30708F014C1C83ED10508F099
:1011F0009CC0C03ED10560F5C83AD10508F087C053
:10120000C53AD10508F0FDC0C130D10509F12097DC
:10121000F9F0C430D105E0F440C08533910509F4FC
:101220005AC0C997C1F680918003837089F0C0EEDF
:10123000D0E00EC0833E910599F170F4803E910597
:1012400001F1823E910539F68091800382FD21C033
:10125000CE01DF91CF910895863E910561F1873EE1
:10126000910571F1843E910509F0B5CF809181031C
:1012700081FFEECF80918003C7EED0E084FD0DC0EA
:10128000E7CF8091800380FD12C19091810390FF90
:10129000DFCFC3EED0E084FFDBCFD0E0C0E0D8CF1B
:1012A0008091800382FD06C19091810390FDBFCFA4
:1012B00084FFCECFF2CF8091800383FDDDCFC8CFF6
:1012C0008091800383FDF9C09091810391FFF0CF5D
:1012D000C4EED0E0BDCF8091800385FFB9CFC9E2D5
:1012E000D0E0B6CF8091800385FFB2CFC5E3D0E0D8
:1012F000AFCF8091800386FFABCFCAE2D0E0A8CF0A
:101300008091800386FFA4CFC1E3D0E0A1CFCF3B83
:10131000D10518F6C85AD0E0CC0FDD1FC25EDE4FF3
:101320000990D881C02DD46493CFC11540E2D40771
:1013300058F4C11581E0D80708F08ACFC03FD10525
:1013400008F4ABCFD06584CFC11590E4D90708F479
:10135000A4CFDF70D06A7CCFC11525E5D20700F598
:10136000C11534E5D30708F08AC0C11543E5D40799
:1013700008F071C0C11582E5D80708F467C0CE0136
:101380008370992721E030E002C0220F331F8A9535
:10139000E2F7C695C69580E2C89FE001112452C0CD
:1013A000C11599E5D907A8F4C11528E5D20708F0B9
:1013B0006BC0C11536E5D30708F06FCF8C2F0E94A4
:1013C0009508C82FD0E0DC2FCC27CC27DF71D06266
:1013D0003FCFC1154AE5D40708F45BC0CE01905653
:1013E0008115904208F059CF8D2F8F710E9495087A
:1013F00090E0982F882788279F719C012C2BE9016A
:10140000E6CFC55AD0E0C55EDE4FC881D0E0D064DB
:101410001FCFCE01E4E096958795EA95E1F78370BA
:101420002C2F26952695237040E2249F90011124AD
:10143000382B8C2F8370C1E0D0E002C0CC0FDD1FB1
:101440008A95E2F7C22BD32BDC6802CFDC2FCC27A6
:10145000C16FD06AFDCECE018370992721E030E0C4
:1014600002C0220F331F8A95E2F7C695C69590E217
:10147000C99FE0011124C22BD32BDA68E9CEDC2FFF
:10148000CC27C46FD06AE4CEDC2FCC27C06FD06AE3
:10149000DFCE8C2F8F700E94950834E0D695C795CB
:1014A0003A95E1F7CF709C2FEC01D069D1CEC9E31A
:1014B000D0E0CECEC2EED0E0CBCEC6EED0E0C8CEED
:1014C00080913002811110923002089580959091A0
:1014D0002F02982390932F02089590911A01992337
:1014E000D1F09091800397FF16C0E82FE695E6951E
:1014F000E695EE31E0F4F0E0EA56FE4F282F277033
:1015000081E090E001C0880F2A95EAF780959281EA
:10151000892382830895E8E9F1E09191891303C05A
:10152000DF0111971C9291E0EE39F907B1F70895A8
:1015300090911A019923C1F09091800397FF14C0F4
:10154000E82FE695E695E695EE31F8F4F0E0EA56F8
:10155000FE4F877021E030E001C0220F8A95EAF744
:101560008281822B82830895A8E9B1E0EFEF90E0B9
:101570002D91821751F0EF3F19F4211101C0E92F8D
:101580009F5F9630A9F7EF3F09F408950E2E000CE7
:10159000FF0BEA56FE4FE6CF80910C029091DB01E3
:1015A000981301C008958F5F8770FACF2FE0929F44
:1015B000800D1124982F977086958695869523E047
:1015C000829FF0011124E954FE4F50E040E080E09A
:1015D000219130E0092E02C0369527950A94E2F752
:1015E00021703327042E01C0220F0A94EAF7822BC0
:1015F0004F5F5F4F4330510559F708952FE0929F99
:10160000800D1124982F977041E001C0440F9A95E6
:10161000EAF786958695869593E0899FF0011124D7
:10162000E954FE4F90E080E070E05191DF011197A6
:101630009B01082E02C0369527950A94E2F7217087
:1016400021952527242325272C9301968330910566
:1016500061F70895809382037093840360938303FA
:101660008091AA038430F9F48093E9008FEF909180
:10167000E800815095FD06C095ED9A95F1F70000C0
:101680008111F5CF8091E80085FF0DC050E040E06A
:1016900063E070E082E893E00E9443048091E800F8
:1016A0008E778093E8000895BC0184E00C942A0BA7
:1016B000BC0183E00C942A0B9C0184E08093E90038
:1016C0009FEF8091E800915085FD06C085ED8A95D9
:1016D000F1F700009111F5CF8091E80085FF0CC073
:1016E00050E040E066E070E0C9010E944304809150
:1016F000E8008E778093E8000895CF93DF93EC01A4
:1017000080911A018823B1F18091800387FF32C054
:1017100060E284E08093E9008FEF9091E8008150CF
:1017200095FD06C095ED9A95F1F700008111F5CF72
:101730008091E80085FF1BC080911A0170E050E0A5
:1017400040E0811104C050E040E068E070E0CE016C
:101750000E9443048091E8008E778093E80080E245
:10176000FE01A8E8B3E001900D928A95E1F7DF91C0
:10177000CF91089568E081E0CDCF81E08093E000D3
:1017800080E28093D8001092C9008FE19EE4019717
:10179000F1F700C0000087E090EBDC018093B80314
:1017A0009093B903A093BA03B093BB0388E19CE084
:1017B0000FB6F894A895809360000FBE90936000D8
:1017C000FFCF80916F0380FD0AC0E0E7F2E0118255
:1017D00010821282339653E0EF36F507C1F7809AF4
:1017E00031B33E7F21B321604FB7F89480E792E098
:1017F000FC015191CF0168E021BB000000C057FF00
:1018000031BB550F000000C000C000C031BB00C09C
:101810006A9591F7F3E08F369F0751F74FBF8FE539
:1018200094E00197F1F700C000000895EF92FF9255
:101830000F931F93CF93DF938C01C0E7D2E0F12C7D
:10184000E12CF80194816091710380917003FAE2B8
:10185000EF16F10414F5992311F140917203473901
:1018600008F046E99E010E94AA062FEFE21AF20A4A
:10187000239685E5E816F10421F70E94E10BF801B3
:10188000848190E00196817099278483DF91CF91C4
:101890001F910F91FF90EF9008959923F1F29E010F
:1018A00040E0E1CF8F929F92AF92BF92CF92DF92B2
:1018B000EF92FF920F931F93CF93DF93EC014C8134
:1018C000042F10E09801D8010E94AB299B01AC01C4
:1018D0000E94C1294B015C01E0E2F0E0E01BF10B4A
:1018E000A5E5B0E0AC019B010E94C1296B017C0120
:1018F0009F01DF010E94A3299B01AC010E94CC291A
:101900009B01AC01280D391D4A1D5B1DC701B601A5
:101910000E947429F22E822F90E039E23F1508F4DC
:101920003EC043E0249F9001112435952795122F46
:10193000109590E7C92E92E0D92E00E085E5E82EBB
:10194000EF188E2D01FD8F2D412F173908F046E934
:101950009601609171030E94AA060F5F53E0C50EC5
:10196000D11C053571F70E94E10B9C8181E0992320
:1019700019F0903219F48FEF8093190180911901B9
:10198000890F8C83DF91CF911F910F91FF90EF9082
:10199000DF90CF90BF90AF909F908F90089525E5F6
:1019A00030E0A901481B590BCA019A01220F331FCD
:1019B000280F391F37FFB9CF2F5F3F4FB6CF0F9397
:1019C0001F93CF93DF93C0E7D2E0FE011182108214
:1019D0001282339683E0EF36F807C1F710E000E09B
:1019E00080916E02082E000C990B08171907A4F1BC
:1019F00080911801082E000C990B8017910764F153
:101A000040917203473908F046E99E0160917103E5
:101A1000809170030E94AA060F5F1F4F2396053521
:101A20001105F1F60E94E10B8091170190916E0271
:101A3000980F90936E0220911801280F209318019F
:101A4000121614F494351CF0819580931701DF91E0
:101A5000CF911F910F910895198218821A82DCCFBD
:101A6000BF92CF92DF92EF92FF920F931F93CF938B
:101A7000DF93FC018281DD24DA9480FD02C0DD2445
:101A8000D39400E712E0D0E0C0E025E5B22EF801E3
:101A900011821082128294E0E92EF12CC12C8091E7
:101AA0006D028C0D86350CF440C06B2D0E943E29D2
:101AB000892F082E000C990B8C179D07A9F4809193
:101AC00072038E9DA0018F9D500D11245595479551
:101AD00055954795473908F046E99801609171039B
:101AE000809170030E94AA06CD0CF1E0EF1AF10874
:101AF000B1F621960D5F1F4FC535D10541F60E9405
:101B0000E10B80916D0291E0D91215C0811111C0D5
:101B100084E580936D02DF91CF911F910F91FF902B
:101B2000EF90DF90CF90BF90089587FFC2CF8B5A80
:101B3000C0CF8150EECF90E00196BE010E94602997
:101B4000E8CFEF92FF921F93CF93DF93EC0180E7F2
:101B5000E82E82E0F82E10E040917203473908F039
:101B600046E98C81970160917103810F0E94AA065A
:101B70001D5F83E0E80EF11C1F3F71F70E94E10B2F
:101B80009A818C8190FF08C08F5F8C83DF91CF9109
:101B90001F91FF90EF9008958150F7CF90916F03C0
:101BA00090FF0CC0E0E7F2E08183608342833396CC
:101BB00093E0EF36F907C1F70C94E10B08950F930A
:101BC0001F93CF93DF9300D00F92CDB7DEB78C0178
:101BD00080916F0281110AC09E012F5F3F4F46E93D
:101BE0006FEF0E94AA068A8180936F02F8016481D8
:101BF000613069F080916F0240E0662361F040E05F
:101C0000623011F440916F0280E060E004C06091A6
:101C10006F0240E080E00E94CE0DF801848190E0E8
:101C2000019663E070E00E94602984830F900F901A
:101C30000F90DF91CF911F910F910895CF93DF9374
:101C400000D00F92CDB7DEB790916F0390FF0DC01B
:101C5000473908F046E99E012F5F3F4F0E94AA06D0
:101C60004B8169818A810E94CE0D0F900F900F9059
:101C7000DF91CF910895CF93DF93EC01EFE6F3E08E
:101C8000438162818C810E941E0E8C818F5F8C83C8
:101C9000DF91CF910895CF93DF93EC01EC81F0E0D9
:101CA000E557FC4F4491EFE6F3E0628181810E94A9
:101CB0001E0E8C818F5F8C83DF91CF910895CF931F
:101CC000DF93CFE7D2E060E0CE010E94F4292196B5
:101CD000C11584E0D807B9F7DF91CF9108956F92CD
:101CE0007F928F929F92AF92BF92CF92DF92EF92AC
:101CF000FF920F931F93CF93DF938BE8C82E84E05E
:101D0000D82E9BEDE92EF12CE701C659D1093601F9
:101D10001BC0F50185909490692DC8010E94F4299B
:101D2000682DC80101960E94F42982E0A80EB11C1A
:101D30000E5F1F4FC017D10761F78EE1680E711C4F
:101D40006E96CE15DF0529F08E010E511109530153
:101D5000E0CF7E0186E9E80EF11C86E9C80ED11CB1
:101D600083E3E81683E0F80679F6DF91CF911F91BF
:101D70000F91FF90EF90DF90CF90BF90AF909F902A
:101D80008F907F906F900895CF93C82F6FEF811140
:101D900062E283E290E00E94F429C1110CC0CFEF0F
:101DA0006C2F84E290E00E94F4296C2F85E290E091
:101DB000CF910C94F429C8E0F3CF80E00E94C40EC8
:101DC00060E086E290E00E94F4290E946F0E0E947B
:101DD0005F0E81E00C94C40E682F86E090E00C94B6
:101DE000F4290F931F93CF93DF93C42FD0E0CC0F30
:101DF000DD1F2EE1629FC00DD11D112436E9839FA6
:101E0000C00DD11D1124CE0187960E94E029082F14
:101E100010E0102F0027CE0188960E94E02998013B
:101E2000282BC901DF91CF911F910F910895462F63
:101E3000843038F4753028F46F3018F4672F0C9420
:101E4000F10E90E080E00895CF92DF92FF920F9321
:101E50001F93CF93DF936C010091B7038091310200
:101E6000082BC7E0D0E010E0FC2EC8010C2E02C009
:101E7000959587950A94E2F780FD0CC02197A0F70D
:101E8000F12C8F2DDF91CF911F910F91FF90DF905B
:101E9000CF900895B6018C2F0E94170F0E94D8088A
:101EA000019761F3EECFCF93DF93EC010E94240FF3
:101EB000BE010E94170FDF91CF910C94D808FC014E
:101EC000808191810E94530F92959F70963091F07E
:101ED00058F4925F9F70923058F4803F19F030F4BC
:101EE000883E30F481E008959A5FF4CF843FD1F3C7
:101EF00080E00895883EB0F3813FD1F7F3CF83E2CD
:101F000090E00E94E029823289F484E290E00E940D
:101F1000E029883059F485E290E00E94E02991E0C0
:101F2000883009F090E0892F8170089580E0FCCF1F
:101F3000CF9384E090E00E94E029C82F82E290E0F5
:101F40000E94E029982F8C2FCF91089560916F0304
:101F5000669570E04BE050E08CE091E00E94282A0A
:101F6000892B19F481E080936C020E949005909374
:101F70006602809365020895CF92DF92EF92FF92FE
:101F80006B017C010E949406B701A60188E090E0F5
:101F9000FF90EF90DF90CF900C94062A5F926F92A3
:101FA0007F928F929F92AF92BF92CF92DF92EF92E9
:101FB000FF920F931F93CF93DF9300D00F92CDB773
:101FC000DEB7082F762E142F622E90916F0390FFAC
:101FD0002DC0E92FE695AE2FB0E0A05ABE4F8C91F0
:101FE00080936B029E7F9230A1F5473908F046E955
:101FF0009E012F5F3F4F672D802F0E94AA064B81C5
:1020000069818A810E94CE0D0093700370927103E2
:1020100010937203662051F060916F03709170030A
:1020200080917103909172030E94BC0F0F900F90EA
:102030000F90DF91CF911F910F91FF90EF90DF9064
:10204000CF90BF90AF909F908F907F906F905F9058
:102050000895823019F410917203D6CF863019F4A6
:1020600000917003D1CF8930D9F3893169F6E951F4
:102070008E2F8170582EE695F0E0EA57FC4FA59020
:10208000B490BB2480E7E82E82E0F82ED12CC12C3E
:1020900095E5892E912CC601B4010E944C29802F10
:1020A000511016C0860F412F173908F046E99701E5
:1020B000672D0E94AA06CA0CDB1C83E0E80EF11C07
:1020C0008FE6E81683E0F80631F70E94E10B9CCF1B
:1020D000861BE9CFEFE6F3E0438128E0421B08F4DA
:1020E00040E021E0628181810C94CE0FEFE6F3E0C5
:1020F000438128E0420F08F44FEF21E062818181A3
:102100000C94CE0FEFE6F3E0628128E0621B08F446
:1021100060E021E0438181810C94CE0FEFE6F3E093
:10212000628128E0620F08F46FEF21E04381818132
:102130000C94CE0FEFE6F3E0818121E043816281D0
:1021400088500C94CE0FEFE6F3E0818121E04381CB
:102150006281885F0C94CE0F80917303882319F0FD
:1021600081508093730360916F037091700380912D
:102170007103909172030C94BC0F809173038330B0
:1021800018F48F5F8093730360916F0370917003F5
:1021900080917103909172030C94BC0F90916F0326
:1021A00090FF36C09170811129C0926090936F03A7
:1021B000662351F060916F037091700380917103F9
:1021C000909172030E94BC0F60916F03669570E05E
:1021D0004BE050E08CE091E00E94282A892BA9F086
:1021E00010926C0281E08093680220E040917203BB
:1021F00060917103809170030C94CE0F853210F0C2
:102200009864D4CF880F982BD1CF0E94A60FEACF25
:10221000089580916F038695815009F484E261E00E
:102220000C94CE1080916F0386958F5F853208F0F5
:1022300081E061E00C94CE1090916F0390FF07C095
:102240009695981720F0961710F40C94121161E0EF
:102250000C94CE10EFE6F3E087E4808311828FEFD9
:10226000828382E38383148260817181828193817E
:102270000C94BC0F69EE7EEF90E080E00E94122A81
:1022800060E082E090E00E94F42960E083E090E06A
:102290000E94F4291092310260E084E090E00E94F4
:1022A000F42960E082E290E00E94F42960E085E099
:1022B00090E00E94F42960E086E090E00E94F4291A
:1022C0006FEF87E090E00E94F42940E050E0BA010F
:1022D00088E090E00E94062A60E08DE090E00E9495
:1022E000F42940E050E0BA0188E190E00E94062A1B
:1022F00060E087E190E00E94F42940E050E0BA01FC
:102300008CE190E00E94062A70E060E080E290E0BC
:102310000E94122A40E050E0BA0188E190E00E9459
:10232000062A80E00E94C40E0E94DD0E40E050E0CC
:10233000BA018FE090E00E94062A40E050E0BA0126
:1023400083E190E00C94062A4F925F926F927F9205
:102350008F929F92AF92BF92CF92DF92EF92FF92B5
:102360000F931F93CF93DF93CDB7DEB72A970FB6A6
:10237000F894DEBF0FBECDBF8E010F5F1F4F8AE006
:10238000F80111928A95E9F79CE4E92E91E0F92E83
:10239000680121E5422E21E0522E66246394712CBF
:1023A00040E6842E41E0942EF70181917F018F3F1A
:1023B00009F445C0F894E82FE295EF70F0E021A110
:1023C0008F70A30102C0440F551F8A95E2F7CA011E
:1023D000922F982B91A392A18095892382A3789420
:1023E00000C0E1E5F1E021E030E0B12CA12C419109
:1023F0004F3F09F47EC0A42FA295AF70B0E0909635
:102400008C9190E04F7002C0959587954A95E2F7C0
:1024100080FD6FC0C901A82AB92A220F331F8E166A
:102420009F0629F7F701319780818F3F11F00E94B5
:102430007E0850EA5A95F1F7F601B182A082F2E0E7
:10244000CF0ED11C4E145F0409F0AECF4AE050E02D
:10245000B80185E392E00E94352AFF24F3940097A7
:1024600009F4F12C892B09F447C08AE0F801A5E3AF
:10247000B2E001900D928A95E1F781E080933402F9
:102480000E94900590933302809332028091320231
:10249000909133020E948105059790F18091350259
:1024A0009091360290934F0280934E0280913702B2
:1024B000909138029093510280935002809139029A
:1024C00090913A02909353028093520280913B0282
:1024D00090913C02909355028093540280913D026A
:1024E00090913E02909357028093560210923402CC
:1024F00007C090E080E08FCF809134028111C6CF79
:102500008F2D2A960FB6F894DEBF0FBECDBFDF9198
:10251000CF911F910F91FF90EF90DF90CF90BF90E0
:10252000AF909F908F907F906F905F904F900895A5
:1025300080912F0290912E02892B80939601909189
:1025400030029923A1F0892B8093960180911A0182
:102550008823D9F18091800387FF37C08EE1E8E9B5
:10256000F1E090E0815098F591110E94600A40E2FC
:1025700050E06EE072E086E991E00E94352A892BF6
:1025800059F180E2E6E9F1E0AEE0B2E001900D92AF
:102590008A95E1F7E0917703F09178033097E1F0C5
:1025A00080911A01882359F08091800387FF07C02A
:1025B000809196018093970186E080939601028036
:1025C000F381E02D86E991E0099486E0C8CF21915E
:1025D000222341F29F5FC6CF089590E080E00E94E1
:1025E000B20590E080E00E949C0510922E020E94AD
:1025F000981286E0EFE5F2E0DF011D928A95E9F797
:10260000109259021092580210925A020C944007EC
:102610008093B7030C94ED128091B703982F9670B6
:10262000963019F488600C940813877FFCCF21E062
:1026300030E001C0220F8A95EAF720958091B70318
:1026400082230C94081390910D0280958923809326
:102650000D02282F277091F4282F082E000C330B21
:102660009217130659F09091810392FD07C085954A
:10267000859585950E94171310920D020895CF93AA
:10268000C0918103C2FB992790F9981799F080FBBC
:10269000C2F9C09381036091800384E090E00E94BE
:1026A000F4296C2F82E290E00E94F42982E0CF911D
:1026B0000C942313CF91089521E030E001C0220F44
:1026C0008A95EAF78091B703822B0C9408138093C4
:1026D00031020C94ED1210922F0280911A01E8E958
:1026E000F1E0882359F08091800387FF07C08EE1D5
:1026F000DF011D928A95E9F70C94ED1286E0F8CF80
:102700001F93CF93DF93CDB7DEB7AA970FB6F89498
:10271000DEBF0FBECDBF8CEA93E02091F100DC015B
:102720002D93CD01B3E0843B9B07B9F78091AD03B6
:10273000833009F472C0B8F4813009F449C08230A2
:1027400009F4B3C08091E80083FF8BC28091AC0391
:102750009091AD039A3008F084C2E92FF0E0EC5B71
:10276000F54D0C9496298A3009F48EC08B3009F40B
:1027700071C0893039F78091AC03813219F78091AB
:10278000B0039091B103009711F00297D9F68091B0
:10279000E800877F8093E8008091E80082FF38C0DE
:1027A0009091F3008091F200029731F48091F10052
:1027B000813011F0863021F48091F10080938703FD
:1027C0008091E8008B778093E8000E946D04BACF77
:1027D0008091AC03813A09F0B5CF8091E800877F02
:1027E0008093E8008091B0039091B103892B61F44C
:1027F00060E288E893E070E00E941F058091E800A5
:102800008B778093E8009ECF60E090E080E0F3CF8C
:102810008091AA038111C0CF95CF8091AC03813AFA
:1028200009F090CF8091B0039091B103892B09F00A
:1028300089CF8091E800877F8093E8008091E8004D
:1028400080FFFCCF80911A018093F1008091E80015
:102850008E77B9CF8091AC03813209F073CF80912C
:10286000B0039091B103892B09F06CCF8091E800FF
:10287000877F8093E8000E946D048091AE0380936F
:102880001A010E946B135ECF8091AC03813209F074
:1028900059CF8091E800877F8093E8000E946D0403
:1028A0008091AF03809386034DCF8091AC03813A32
:1028B00009F048CF8091E800877F8093E8008091FD
:1028C000E80080FFFCCF80918603BECF803899F06E
:1028D000823809F0C6C18091B0038F70873008F04C
:1028E000C0C18093E9008091EB0085FB882780F9C7
:1028F0001092E90006C08091A8039091A90391115C
:1029000082609091E800977F9093E8008093F100B7
:102910001092F1008091E8008E779FC1882309F41E
:102920008DC1823009F09DC18091AE03811190C1AB
:102930008091B0038F702FEF280F263008F091C1DF
:102940008093E9002091EB0020FF82C1933031F4A5
:102950008091EB0080628093EB007AC19091EB0054
:1029600090619093EB0021E030E001C0220F8A9546
:10297000EAF72093EA001092EA008091EB00886069
:10298000EACF81116EC11091AE031F778091E300F1
:102990008078812B8093E3008091E800877F80938B
:1029A000E8000E946D048091E80080FFFCCF8091D8
:1029B000E30080688093E30082E0111183E080935C
:1029C000AA034FC18058823008F04BC12091AE035A
:1029D0003091AF032C3DE3E03E07A1F583E08A830D
:1029E0008AE289834FB7F894DE01139620E03EE037
:1029F00051E2E32FF0E050935700E49120FF03C031
:102A0000E295EF703F5FEF708E2F90E0EA30C0F0FC
:102A1000C7968D939D932F5F243159F74FBF8091B7
:102A2000E800877F8093E8006AE270E0CE010196BB
:102A30000E941F058091E8008B778093E80011C108
:102A4000C096E7CF8091B0039091B103432F5527F3
:102A50004330510509F44AC078F54130510509F475
:102A60007AC08BE590E0E3EEF6E04230510509F0E4
:102A7000F8C02091E800277F2093E8002091B2035E
:102A80003091B3038217930708F49C0140E02115AD
:102A9000310509F065C0411163C08091E80082FDF5
:102AA000C9CF8091AA03882329F2853019F2809139
:102AB000E80083FFF2CFBECF4132510509F43CC09C
:102AC0004232510509F0CDC08330910508F0C9C0EC
:102AD000FC01EE0FFF1FE857FE4F0190F081E02D43
:102AE0008B579E4FDC018C9190E01AC03327213028
:102AF0003105D1F02115310561F02230310509F0A1
:102B0000B0C0E0E5F7E0E4918E2F90E0E0E5F7E07B
:102B100007C0EEE6F7E0E4918E2F90E0EEE6F7E0F6
:102B2000009709F49EC0A5CFE2E6F7E0E4918E2F6E
:102B300090E0E2E6F7E0F4CF8330910508F091C031
:102B4000880F991FFC01E257FE4F0190F081E02DA4
:102B500089E090E08ECF82E190E0EEE3F7E089CF6C
:102B60008091AA03882309F465CF853009F462CFE8
:102B70008091E80083FD5ECF8091E80082FD8DCFDB
:102B80008091E80080FF83CF9091F3008091F20064
:102B90002115310519F08830910550F041E0089772
:102BA00009F040E08091E8008E778093E8006FCFD5
:102BB00044914093F1003196215031090196E8CFBC
:102BC000803809F04EC08091E800877F8093E8004C
:102BD0008091AB038093F1009DCE811142C0109192
:102BE000AE031230F0F58091E800877F8093E80013
:102BF0001093AB030E946D04112311F084E005C013
:102C00008091E30087FDFACF81E08093AA0342E040
:102C100061EC81E00E948C0442E261EC84E00E945D
:102C20008C0442E261EC82E00E948C0442E260EC9F
:102C300083E00E948C048091AA0313C08091AE03AC
:102C4000813079F481E0933009F080E08093A9032A
:102C50001092E9008091E800877F8093E8000E944D
:102C60006D048091E80083FF0AC08091E800877FAF
:102C70008093E8008091EB0080628093EB00AA963D
:102C80000FB6F894DEBF0FBECDBFDF91CF911F917D
:102C90000895882321F00E94660A0C9498120895E2
:102CA000882339F090912F02982B90932F020C9447
:102CB00098120895882309F452C0823871F40E9452
:102CC000C80581FF4CC089E30E94980A0E949812AF
:102CD00089E30E946D0A0C949812833859F40E947B
:102CE000C80580FF3CC083E50E94980A0E949812A4
:102CF00083E5EFCF843859F40E94C80582FF2FC0C6
:102D000087E40E94980A0E94981287E4E2CF9CEF21
:102D1000980F913AF0F290E2980F983050F4877043
:102D200091E001C0990F8A95EAF7892F0E94660AFF
:102D3000D2CF9BE5980F933020F490E080E00C9484
:102D4000B20598E5980F973120F490E080E00C945C
:102D50009C05803F20F00E9467070C94400708956F
:102D6000CF93C82F882309F4AEC08238C1F40E94E3
:102D7000C80581FDA8C089E30E94980A0E949812A4
:102D80002FEF81EE94E0215080409040E1F700C0A9
:102D9000000089E30E946D0ACF910C949812833849
:102DA000A1F40E94C80580FD8EC083E50E94980AA8
:102DB0000E9498122FEF81EE94E0215080409040C5
:102DC000E1F700C0000083E5E5CF8438A1F40E945C
:102DD000C80582FD78C087E40E94980A0E94981274
:102DE0002FEF81EE94E0215080409040E1F700C049
:102DF000000087E4CFCF8CEF8C0F813A88F580916B
:102E00001A01882301F18091800387FF1CC0EC2FF9
:102E1000E695E695E695F0E0EA56FE4F828190E071
:102E20004C2F477021E030E002C0220F331F4A953B
:102E3000E2F782239323892B79F08C2F0E946D0A6D
:102E40000E94981209C0E8E9F1E08191C817A9F33E
:102E500021E0EE39F207C9F78C2F0E94980A9CCF27
:102E600080E28C0F883068F4C77021E030E001C048
:102E7000220FCA95EAF780912F02822B80932F02AE
:102E80008BCFEBE5EC0FE33040F4F0E0E55EFE4F76
:102E9000808190E0CF910C94B205E8E5EC0FE7312A
:102EA00050F4F0E0EE0FFF1FE25EFE4F8081918153
:102EB000CF910C949C05C03F30F08C2F0E942208CB
:102EC000CF910C944007CF9108951F93CF93DF9338
:102ED000182FD0E0C0E0893311F4C0E5D0E0812F95
:102EE0000E94B016209731F4812FDF91CF911F916E
:102EF0000C945A168FE99FE00197F1F700C000008B
:102F00002197F0CF0F931F93CF93DF93C62FD42F2A
:102F1000022FFC0182818823A1F06093B6030E94F6
:102F200090059093B5038093B403C77081E001C00E
:102F3000880FCA95EAF7DF91CF911F910F910C94FA
:102F400050168091B603681335C08091B4039091F8
:102F5000B5030E948105883C910560F510E21D0FC4
:102F6000CD17B9F080E28C0F883040F4C77081E053
:102F700001C0880FCA95EAF70E944916183048F434
:102F800081E09D2F977001C0880F9A95EAF70E9403
:102F90005016802F0E946517183098F4D77081E082
:102FA00001C0880FDA95EAF7DF91CF911F910F9159
:102FB0000C944916C77081E001C0880FCA95EAF7E2
:102FC000F3CFDF91CF911F910F9108953F924F92D0
:102FD0005F926F927F928F929F92AF92BF92CF92A9
:102FE000DF92EF92FF920F931F93CF93DF9300D066
:102FF00000D00F92CDB7DEB78C01FC0183819481A4
:10300000892B31F08081918189238F3F09F00DC692
:103010000F900F900F900F900F90DF91CF911F9115
:103020000F91FF90EF90DF90CF90BF90AF909F9067
:103030008F907F906F905F904F903F9008950E9487
:10304000240FF82E682F89819A810E94FE0A6981D7
:103050007A818F2D0E94170F7C01F80182818823CD
:1030600009F479C5C70182519F45409708F031C5E1
:103070008FEF93E00E94E029FEEEEF0E5FE7852ED2
:1030800052E0952E8823A1F180910D02877009F4FA
:10309000BFCFF8018281882309F4BACF80918103E0
:1030A00082FDB6CF82E00F900F900F900F900F909F
:1030B000DF91CF911F910F91FF90EF90DF90CF9014
:1030C000BF90AF909F908F907F906F905F904F9048
:1030D0003F900C942313811424E09206A9F2C401BA
:1030E0000E94E029811101C0EA943FEF831A930AFC
:1030F000E110F1CF1C821B82442443944AE0342E19
:1031000074018FEFE81AF80AC4010E94E02989834C
:103110001A82882309F4B8CF9FEF980F933000F5F7
:103120008A83498292E0890E911CC7010E94E0299E
:103130008B83882309F4A8CFFE0131967F01F70124
:1031400020812223E9F2213009F049C09181828156
:10315000913041F4F2E0EF0EF11C0E94651709C0B6
:103160004701EACF923049F422E0E20EF11C0E94BE
:10317000B0163FEFE31AF30AE2CF933031F432E0B6
:10318000E30EF11C0E945A16F4CF943021F08FEF19
:10319000E81AF80AEECF92E0E90EF11C30E020E0E8
:1031A000B7016F5F7F4FF70141818053990B8A30E0
:1031B000910550F021503109E0F28FE99FE001972D
:1031C000F1F700C00000F6CF329EF001339EF00D03
:1031D00011249C012E0F3F1F842F7B01E1CFE22F92
:1031E000F0E0EC50FE4F5490822F869586958695A0
:1031F00090E0FC01EC51FE4F64902770712C022E80
:1032000002C0759467940A94E2F7E1E06E22772495
:10321000FC01EC52FE4FA490B12C022E02C0B594DA
:10322000A7940A94E2F7F1E0AF22BB24FC01EC532F
:10323000FE4FC490D12C02C0D594C7942A95E2F7D2
:1032400021E0C222DD246114710419F081EE0E9494
:10325000B016A114B10419F086EE0E94B016852DA7
:103260000E946517AB2819F086EE0E945A1667284F
:1032700019F081EE0E945A16CD2809F47ACF8CE21B
:103280006CCF81E00E945C1303C081E00E941713A1
:103290000E940C13F9CE82E0F5CF82E0F7CF2FEB3E
:1032A000E2162CE5F20609F44BC0A0F180ECE8161A
:1032B0008CE5F80609F02EC490917403892F869549
:1032C000869586958F5F8F719770843008F059C00E
:1032D000880F880F880F892B809374038091740363
:1032E00010C083E00E947806809174030E94EC0E67
:1032F000CBCE80917403982F987FE9F1885080930A
:103300007403887F91E009F490E08091740390FB4E
:1033100080F913C080917403982F96959695969591
:10332000933040F49F5F990F990F990F8770892B05
:10333000809374038091740381608093740319C037
:103340008091740380FF09C08E7F809374030E9474
:10335000EC0E80E00E94D40597CE80FD95CE816072
:1033600080937403813019F489E080937403809111
:1033700074030E94EC0E8091740386958695869561
:10338000E9CF90937403AACF27E245EE65EEDFC341
:1033900026E241EE60EEDBC327E245EE64EED7C3E2
:1033A00026E241EE62EED3C328E241E0EFCFF1E640
:1033B000EF16FDE5FF0609F454C525EAE2162DE5F2
:1033C000F20609F44EC5E6E1EE16ECE5FE0609F05C
:1033D000B7C480912F028A7A91E009F490E090932B
:1033E000B601811107C189E20E94980A0E949812D1
:1033F0004BCE809180038062E7E0EE16ECE5FE069E
:1034000009F4ADC0809180038061F8E0EF16FCE51F
:10341000FF0608F4A4C0809180038064A0C080915E
:1034200080038B7F2DE0E2162CE5F20609F497C0AD
:1034300098F48BE0E8168CE5F80609F4A5C08091B5
:1034400080038C609CE0E9169CE5F90608F487C0CF
:10345000809180038D7F83C0809180038F7EEFE019
:10346000EE16ECE5FE0609F47AC080918003877FB2
:10347000F0E1EF16FCE5FF0608F471C080918003CF
:103480008F7D6DC02DEFE2162CE5F20609F484C0A5
:1034900078F585E1E8168CE5F80609F48BC0A0F410
:1034A00080918003837FE3E1EE16ECE5FE0609F4EC
:1034B00056C008F479C00E946B1390918003892F45
:1034C00097FB87F980584BC02BEFE2162CE5F206EC
:1034D00009F450C008F05CC08AEFE8168CE5F806E5
:1034E00009F0EEC480918103816080938103E8C478
:1034F00091E0E9169DE5F90609F468C0C8F48091E9
:1035000081038C7FFFEFEF16FCE5FF0671F38091DE
:1035100081038360E1142DE5F20638F38091810385
:10352000982F909591708E7F892B90FB81F9DDCF3C
:1035300031E6E3163DE5F30609F44EC085EAE816E8
:103540008DE5F80609F44FC092E0E9169DE5F9060D
:1035500009F0B6C460E03BC0809180038260809334
:103560008003AEC4809180038460F9CF8091800392
:103570008860F5CF809181038260B7CF0E946B1382
:10358000809180038068EBCF809180038E7FE7CFAE
:10359000809181038E7FA9CF809181038D7FA5CFFC
:1035A000809180038F7BDBCF0E946B13809180031F
:1035B0008F77D5CF8091800382FB992790F921E006
:1035C000922790FB82F990FB83F9C9CF61E08EE0EE
:1035D00090E00E94F42974C490918003892F8F7E1B
:1035E00094FF8061BCCF90918003892F8E7F90FFE4
:1035F0008160B5CF85E3F8CE8091B601811104C01A
:1036000089E20E946D0AF2CE85E3FBCF8160809350
:103610006F0361E086950E94CE1036CD49E051E1FE
:1036200062E171E10E948E062FCD42E151E169E035
:1036300071E1F8CF43EA50E16AE970E1F3CF42E883
:1036400050E16EE870E1EECF4AE650E166E770E1E6
:10365000E9CF46E750E16AE670E1E4CF4DEB50E197
:103660006CEA70E1DFCF61E081E0D5CF65E082E018
:103670000E941C1109CD68E086E0FACF64E18FE07A
:10368000F7CF67E185E1F4CF62E289E1F1CF61E054
:1036900083E2C1CF0E946B138FEF94E3ECE0815083
:1036A0009040E040E1F700C000000E94BD0B81E0C7
:1036B0006DC380E06BC3C7010E94D60AD82E77C3C2
:1036C0002F2D2F70C22E8F2D807F19F0C29490EF76
:1036D000C922DD20B9F0CC2069F080E28E0D88305F
:1036E00010F0811009C080912F02C82AC0922F02C9
:1036F0000E9498128E2D4DC080912E02C82AC09231
:103700002E02F6CF8E2D0E945A16CC2009F443C00B
:1037100080E28E0D883010F0811004C08C2D0E9444
:10372000660A06C0C09480912E02C822C0922E0262
:103730000E94981230C03F2D3F70C32E8F2D807F86
:10374000803219F0C29480EFC822882089F081E08D
:10375000881609F47FC0DD2009F489C0BB2009F474
:103760007FC0F801858180FFC5CF8F70858378C0C9
:103770002091810322FF4BC0DD2009F442C0CC2000
:1037800039F080912F02C82AC0922F020E9498120D
:1037900080E00E94B016292D2850330B24303105CB
:1037A00010F40E94C805AA2009F432CC80910D02C1
:1037B00080FD2ECCF80112828595859585950E9415
:1037C0005C13C8010E94E61780910D0285958595CE
:1037D00085950F900F900F900F900F90DF91CF91E4
:1037E0001F910F91FF90EF90DF90CF90BF90AF901F
:1037F0009F908F907F906F905F904F903F900C9430
:10380000171380E00E945A16CC2029F287CFDD20C2
:10381000A1F0909130028C2D892BB11003C00E9431
:103820005016B9CFE1E0BE12FACF22FDB4CF9817FF
:1038300009F4B1CF80933002AECFB11006C00E9420
:10384000600A8C2D0E944916A6CFF1E0BF1609F43C
:10385000A2CFF5CFDD2031F025E02B1508F49BCF6A
:103860008C2DDDCF34E03B1508F495CFEACFBB209B
:1038700041F3F9E38F1209C02FEF37EE83E02150B7
:1038800030408040E1F700C000008E2D0E945A16A3
:1038900082CF8F2D86958695837061F0813009F0F7
:1038A0007ACFC7019370D11002C090E080E00E94EF
:1038B0009C0571CFC7019370D11002C090E080E0E9
:1038C0000E94B20568CF8E2DDD2029F00E942208CB
:1038D0000E94400760CF0E946707FACF8F2D837048
:1038E00091F5D11058CF4E2D429546954770440F13
:1038F000440F8E2D8F70042E01C0880F0A94EAF7B2
:103900002E2D2071E4FE07C02FE030E001C0220F11
:103910004A95EAF720953F2D36953695337032302B
:1039200069F050F440913102313029F0822B842328
:103930000E94671330CF842B822BFACF282B8091E3
:1039400031028227F5CF8695DD2011F08F2D817011
:10395000882309F420CF4E2D429546954770440F99
:10396000440F8E2D8F70042E01C0880F0A94EAF741
:103970002E2D2071E4FE07C02FE030E001C0220FA1
:103980004A95EAF720953F2D3695369533703230BB
:1039900069F050F44091B703313029F0822B842331
:1039A0000E940813F8CE842B822BFACF282B80910B
:1039B000B7038227F5CF9F2D9F70F92EDD2029F0C8
:1039C000892F0E945C138E2D2ACF8E2D0E944916BE
:1039D0008F2D0E941713DFCE8E2DE2EF8E16B1F1E0
:1039E000E81570F0F0EF8F16D1F021EF821691F00C
:1039F000DD2009F45EC0B1107DCE8F2D8F712AC0FD
:103A000033EF831651F194EF8912F2CF8091810345
:103A100082FF2FC08F2D8F71DD20D9F21BC0DD20DA
:103A200081F0E4E0EB1508F4B6CE2F2D2F7181E084
:103A300090E001C0880F2A95EAF79091B703892793
:103A4000AFCFF5E0FB1508F4A6CEEFCF8F2D8F7129
:103A5000D110BFCF0E945C139ECE80E0DD2009F420
:103A60009FCF9F2D9F7181E001C0880F9A95EAF743
:103A700097CFDD2099F02F2D2F71F22E822F0E94EB
:103A80005C138091810382FD07C038E0F39EC00182
:103A90001124836080930D028F2DDCCF81E00E9482
:103AA000231381E08B1508F076CE82E00E94231369
:103AB00072CEBB2059F0893309F0E7CE9FEFE7EED5
:103AC000F3E09150E040F040E1F7DDCE8F2D8F71B3
:103AD00080CFF0E1EF16FFE5FF0609F4D2CB21E13C
:103AE000E2162FE5F20609F4D6CB8DEBE8168CE54D
:103AF000F80609F4FECB08F0D2CBEBEBEE16ECE5C2
:103B0000FE0609F4EECB80E0FCEBEF16FCE5FF06C9
:103B100009F4E8CB23EFE2162CE5F20609F438CCE1
:103B200008F07EC188EDE8168CE5F80609F42CCC87
:103B300099EDE9169CE5F90609F436CCE7EDEE16A9
:103B4000ECE5FE0609F07AC126E241EE61EEC8011D
:103B50000E94821799CA30E1E3163FE5F30609F4A3
:103B600094CB81E1E8168FE5F80609F496CB83EF54
:103B7000E8168CE5F80609F40BCC08F0B1C1E8EDC5
:103B8000EE16ECE5FE0609F4FFCBF9EDEF16FCE5C9
:103B9000FF0609F409CC27EDE2162CE5F206A1F2A6
:103BA000F6E1EF16FCE5FF0609F426CD80912F0221
:103BB00082722CECE2162CE5F20609F44FCD08F0E7
:103BC0007FC096ECE9169CE5F90609F433CD08F0C0
:103BD0004EC0F3ECEF16FCE5FF0609F41FCDB0F57F
:103BE00032ECE3163CE5F30609F0D2C080916F0396
:103BF00080FF0CCD8E7F80936F0360916F03709177
:103C0000700380917103909172030E94BC0F109217
:103C10006C02FFEF20E732E0F15020403040E1F746
:103C200000C000000E94E10B2FCA85E0DE01119662
:103C300001900D928A95E1F7F801228189819A819C
:103C40002111FDC90E94D60AF82E01CA94ECE9168A
:103C50009CE5F90609F4E9CC4AE950E163EA70E130
:103C6000E5ECEE16ECE5FE0609F4DCCC91C0F9ECCF
:103C7000EF16FCE5FF0609F4E7CC88F437ECE31611
:103C80003CE5F30609F4DBCC4EE850E162E870E174
:103C900098ECE9169CE5F90609F4C4CC79C0EAEC85
:103CA000EE16ECE5FE0609F4D4CC4CEA50E16DEBDF
:103CB00070E1FBECEF16FCE5FF0609F4B3CC68C03D
:103CC00021EDE2162CE5F20609F4D8CCB8F48EEC1E
:103CD000E8168CE5F80609F4C9CC08F4C4CCEFEC7E
:103CE000EE16ECE5FE0609F4C6CC6EE089E0F0EDD8
:103CF000EF16FCE5FF0609F4BBCC4AC024EDE21642
:103D00002CE5F20609F4C0CC78F482EDE8168CE5D7
:103D1000F80609F4B6CC61E088E193EDE9169CE57C
:103D2000F90609F478CC34C0E5EDEE16ECE5FE06B4
:103D300009F4ADCCFDE5EF16FF0609F4A5C928C0CE
:103D40002AE5E2162DE5F20609F4B1CC68F4E11497
:103D50008CE5F80609F49ECC9EEDE9169CE5F90683
:103D6000B9F40E943A1190C9EBE5EE16EDE5FE06B6
:103D700009F49FCCFCE5EF16FDE5FF0649F48091C0
:103D8000810382FB882780F991E089270E943F13F5
:103D9000F8018281E080F180882309F48CCCC7018E
:103DA0000E94240FD82E682FC7010E94FE0AB70177
:103DB0008D2D0E94170F0E94D8087C01882EF801D3
:103DC000D280B580B2943FE0B32280910D0287701B
:103DD000C1F0AD2CDD20B1F08F2D807F803421F03B
:103DE00080E28E0D883068F08091810382FD09C0E9
:103DF00082E00E94231380910D028770AA24A3946D
:103E00008111A12C9F2C92942FE09222FBE0F915B6
:103E100008F4C1CCE92DF0E0E25BF54D0C94962955
:103E2000F5EFEF16FCE5FF0609F4BACA08F4B4CAC8
:103E300036EFE3163CE5F30609F460C01092B603D2
:103E400093E0E9169DE5F90608F0B1CAEAEFEE162F
:103E5000ECE5FE0630F4C70182509C45449708F01B
:103E6000B2CA0E94980F909381038093800331E13E
:103E7000E3163CE5F30609F493CB08F003CB99E095
:103E8000E9169CE5F90609F479CB08F0C8CAF5E013
:103E9000EF16FCE5FF0609F469CB08F0AACA33E087
:103EA000E3163CE5F30609F457CB08F05BCB8091B1
:103EB0008003816092E0E9169CE5F90609F44FCB96
:103EC00060918003F090810384E090E00E94F429E7
:103ED0006F2D82E290E00E94F4290E946B13D4C8F7
:103EE00035EFE3163CE5F30609F45ACA08F454CA60
:103EF00096EFE9169CE5F90609F052CE27E245EE69
:103F000066EE25CE1F93CF93DF938091DA01807FF9
:103F1000A9F48091D701882389F080910C02D09177
:103F2000DB016091D5017091D601A091D801B091CB
:103F3000D901C62FC72316E0D81304C0DF91CF9153
:103F40001F91089590E0109711F0CF3F19F401965A
:103F50008770F2CF189F9001199F300D1124F9013D
:103F6000E452FE4F41814713F2CF40814613EFCF19
:103F700042814111ECCF438154814A1B5B0B483C89
:103F8000510528F78091DA018F7080618093DA0102
:103F9000F901EF51FE4F80818F708061808385ED44
:103FA00091E00E94E617DF91CF911F910C94CC0A0B
:103FB000AF92BF92CF92DF92EF92FF920F931F9337
:103FC000CF93DF93CDB7DEB761970FB6F894DEBF1E
:103FD0000FBECDBF8C0185E0F801DE011D9601907A
:103FE0000D928A95E1F7F801E28085EDA82E81E037
:103FF000B82E6091D8017091D9016115710509F44D
:1040000032C19091D5014091D601892F84238F3FF1
:1040100009F429C120813181C380D480F090D70177
:10402000F601E61BF70BFF2009F4E8C08091DA01E6
:10403000582F507FE83CF10508F0ABC0511177C014
:10404000FE2C431321C092131FC0E1101DC08F70BE
:1040500080618093DA01C5010E94E6178091DA0140
:10406000F80185838F2D61960FB6F894DEBF0FBEE1
:10407000CDBFDF91CF911F910F91FF90EF90DF9017
:10408000CF90BF90AF900895CD2829F0822F832341
:104090008F3F09F003C180E0F82FF170DF2E80FF21
:1040A0003CC080910C024091DB0156E0841315C0A6
:1040B0002D873E878D859E850E94530F292F22953F
:1040C0002F702230F0F0243018F59F70F1F0F801D5
:1040D0009581907FD1F4D12C1EC090E0589FF001C3
:1040E000599FF00D1124E452FE4F6181361306C032
:1040F0006081261303C06281E6120FC001968770AB
:10410000D5CF9F7011F0882331F3805E883018F38B
:10411000C8010E94E617FD2CA5CFEE2009F4A2CF1E
:104120008091DA0181608093DA01F12C9BCF4313F7
:1041300006C0921304C0F801EE2009F479C0C8014A
:104140000E945F0F882309F1EE20F9F08091DA01D7
:10415000803270F02091D5013091D60138872F83BD
:104160001986DB86CA868C87CE0107960E94E617E1
:1041700086E0F801A5EDB1E001900D928A95E1F796
:104180000E94821FFF24F3946DCFC8010E94E6179E
:10419000F9CF51110AC085ED91E00E94E61786E043
:1041A000F50111928A95E9F7C0CF43130FC092131E
:1041B0000DC0E1100BC0F8018583C8010E94E6170D
:1041C00086E0F50111928A95E9F74CCFC8010E946B
:1041D0005F0F8823D1F2EE20C1F28091DA018032A4
:1041E00038F22091D5013091D6013A8329831B8280
:1041F000DD82CC828E83CE010196B8CFE83CF105FA
:10420000F8F6FE2CEE2009F243131FC092131DC0D6
:104210008091DA0180FD10C0982F907F69F0F8013D
:104220008583903F31F0982F907F905F8F70892B1E
:104230008583C8010E94E61786E0F801A5EDB1E08C
:1042400001900D928A95E1F70DCFC8010E945F0F92
:1042500081118ECF8091DA0181608093DA01C801EB
:104260000E94E617FFCEEE2009F48FCFC8010E940E
:104270005F0FF82E882309F488CF86E0F801A5EDBA
:10428000B1E001900D928A95E1F78091D50190916E
:10429000D6010E94530F0E94821FE4CE81E08E253A
:1042A000FBCE1F93CF93DF93CDB7DEB767970FB6E3
:1042B000F894DEBF0FBECDBF4B8B5C8B6D8B7E8BBE
:1042C0008F8B611110922E021A8A198A85E0FE01E5
:1042D0007396DE011D9601900D928A95E1F786E0B6
:1042E000FE013D96DE01179601900D928A95E1F749
:1042F000CE0107960E94D81F882389F016E080918E
:104300000C029091DB01891349C067960FB6F894AF
:10431000DEBF0FBECDBFDF91CF911F91089586E024
:10432000FE013796DE01119601900D928A95E1F714
:104330008A859B85892B11F38F81988589238F3FEF
:10434000E9F22091DB0130E0C901019687709927DD
:1043500040910C024817190671F40E946B131092D9
:10436000DB0110920C0286E0E5EDF1E0DF011D9229
:104370008A95E9F7C3CF96E0929FD001939FB00D45
:104380001124A452BE4FFE01319601900D929A95D0
:10439000E1F78093DB010E94CC0AB0CF819FC0017E
:1043A000112484529E4F0E94D81F882309F4ADCF58
:1043B00080910C0290E001968770992780930C02FF
:1043C0009ECF90E080E00E94EE29893E9E4F11F43E
:1043D0000C947F0F80E008950E94E12181110AC0B2
:1043E0000E943A11809174038470896180937403F0
:1043F0000E94EC0E86E090E00E94E0298093740316
:10440000803220F0877088618093740390917403E8
:10441000892F817090FF04C0892F86958695869597
:104420000C94D4051F920F920FB60F9211242F9364
:104430003F934F935F936F937F938F939F93AF932C
:10444000BF93CF93DF93EF93FF93D091E900DF7099
:104450008091EC00C82FC17080FDC0E81092E90087
:104460008091F000877F8093F00078940E94801301
:104470001092E9008091F00088608093F000CD2BCD
:10448000CF70C093E900FF91EF91DF91CF91BF9181
:10449000AF919F918F917F916F915F914F913F91DC
:1044A0002F910F900FBE0F901F9018951F920F9293
:1044B0000FB60F9211242F933F934F935F936F93F7
:1044C0007F938F939F93AF93BF93EF93FF938091CD
:1044D000E10082FF09C08091E20082FF05C0809167
:1044E000E1008B7F8093E1008091DA0080FF24C09F
:1044F0008091D80080FF20C08091DA008E7F809369
:10450000DA008091D90080FF9DC080E189BD82E101
:1045100089BD09B400FEFDCF81E08093AA0380919C
:104520008503811109C00E94F3030E94BE0480919B
:10453000E20084608093E2008091E10080FF17C078
:104540008091E20080FF13C08091E2008E7F809313
:10455000E2008091E20080618093E2008091D800C7
:1045600080628093D80019BC85E08093AA03809173
:10457000E10084FF2BC08091E20084FF27C080E12E
:1045800089BD82E189BD89B5982F917080FFFBCFED
:104590008091D8008F7D8093D8008091E1008F7E3C
:1045A0008093E1008091E2008F7E8093E200809111
:1045B000E20081608093E2008091AB03882309F4DC
:1045C00047C084E08093AA038091AA038091E10010
:1045D00083FF27C08091E20083FF23C08091E10028
:1045E000877F8093E10082E08093AA031092AB035F
:1045F0008091E1008E7F8093E1008091E2008E7FC8
:104600008093E2008091E20080618093E20042E0CA
:1046100060E080E00E948C048091F00088608093CC
:10462000F000FF91EF91BF91AF919F918F917F919A
:104630006F915F914F913F912F910F900FBE0F900F
:104640001F90189519BC1092AA031092850374CF7D
:104650008091E30087FD93E09093AA03B5CF78940F
:104660001F921FB61F9211248F939F93AF93BF93F6
:1046700080917C0390917D03A0917E03B0917F0394
:104680000196A11DB11D80937C0390937D03A0939F
:104690007E03B0937F03BF91AF919F918F911F9045
:1046A0001FBE1F9018951F921FB61F9211248F9343
:1046B0009F93AF93BF9380917B03811113C080912F
:1046C0007C0390917D03A0917E03B0917F0341967E
:1046D000A11DB11D80937C0390937D03A0937E0365
:1046E000B0937F03BF91AF919F918F911F901FBE99
:1046F0001F901895CDB7DEB7AA970FB6F894DEBF16
:104700000FBECDBF84B7877F84BF0FB6F894A8953E
:1047100080916000886180936000109260000FBEFD
:1047200080E890E00FB6F894809361009093610068
:104730000FBE85B7806885BF85B7806885BF8CE769
:1047400098E090939501809394010E94F3030E9456
:10475000BE048091E20084608093E20078948091AE
:10476000AA038823A1F01091E9001F709091EC003A
:10477000892F817090FD80E8182B1092E9008091BC
:10478000E80083FD0E9480131F701093E90082E00F
:1047900084BD93E095BD9AEF97BD80936E000E9413
:1047A0007F0F811102C00E94DD0E0CE411E0D801E0
:1047B0008D918D018F3F11F00E947E08B1E001358F
:1047C0001B07A9F701E511E0E0E6EE2EE1E0FE2E81
:1047D000F80181918F018F3F11F00E947E08E01651
:1047E000F106B1F78AE0EEE4F2E0DF01282F1D9236
:1047F0002A95E9F7E5E3F2E0DF011D928A95E9F7F2
:104800000E94E121811102C00E943A1182E090E0F1
:104810000E94E029809342020E94980F90938103A6
:10482000809380030E94A411EFE3FCE93197F1F734
:1048300000C000000E94A41180914E0280FF08C0B9
:104840006FEF7FEF90E080E00E94122A0E94BD0B84
:1048500083E090E00E94E0290E946713279A2F9836
:104860008AE08093800089E1809381008FEF9FEF41
:1048700090938700809386000E94EC210E94EC2197
:1048800080913F02811133C00E94E121811104C057
:104890000E943A110E942A1188E090E00E94E829C3
:1048A00060936F037093700380937103909372030E
:1048B0006E7F71F40E942A1188E090E00E94E8293E
:1048C00060936F03709370038093710390937203EE
:1048D0000E94940610926C0280916F0380FF04C0C6
:1048E00060E086950E94CE1081E080933F0280E0D8
:1048F00091E0909378038093770358E1E52EF12CB3
:1049000060E4B62E78E5C72E72E0D72E8091AA0318
:104910009924939400E112E1853009F4D6C10E94F4
:10492000A411882359F08FB7F89440917C035091DB
:104930007D0360917E0370917F038FBFAEE4B2E090
:10494000E3E4F2E010E000E0702F8D919D91219161
:1049500031912817390709F4DBC12827392760E08E
:1049600088248394912CA40142235323452B09F4DA
:10497000C9C169A37AA394012823392391E0232B89
:1049800009F490E09BA30E9490058160782F9DA37D
:104990008CA349A15AA16BA18DA10E945121000FA6
:1049A000111FF801ED5BFD4F8081918188269926CA
:1049B0009182808280916C028823D1F180916B0278
:1049C000E0916F03E695E81BE0936702823009F0FF
:1049D000B6C1F0E0EE57FD4FE4910E2F10E0BBE4BE
:1049E0008B2EBEE09B2E80916802882361F010928E
:1049F00068020E949005909366028093650210926F
:104A00006A02109269020E949005E0916502F0919D
:104A100066028E1B9F0B8F3F9F4750F4E00FF11FE4
:104A2000F0936602E093650285E692E0F401099551
:104A300086E0EFE5F2E0DE01119601900D928A9595
:104A4000E1F7909061028090620210916302009100
:104A5000640210926102109262021092630210923C
:104A60006402892D882909F448C080915D029091E3
:104A70005E020E9481059C0190915902992309F4DC
:104A8000E8C325313105C8F19F3F19F09F5F90932E
:104A90005902992059F00E9402089FEF19140CF452
:104AA00091E0899F802D112480936102882059F024
:104AB0000E9402089FEF18140CF491E0899F802D4A
:104AC000112480936202309161023323B1F020916E
:104AD0006202222391F045EB3403C0011124992393
:104AE00009F487C19093610245EB240390011124DE
:104AF000332309F482C130936202812F802B09F4A1
:104B000048C080915B0290915C020E9481059C01EB
:104B100090915802992309F497C321353105C8F1C2
:104B20009F3F19F09F5F90935802112359F00E9404
:104B3000E0079FEF11160CF491E0899F802D11245E
:104B400080936302002359F00E94E0079FEF101644
:104B50000CF491E0899F802D1124809364023091A0
:104B600063023323B1F020916402222391F045EBDC
:104B70003403C0011124992309F443C190936302C3
:104B800045EB240390011124332309F43EC13093F3
:104B900064028091610290916202892B909163027C
:104BA000892B90916402892B11F00E94400786E0C6
:104BB000FE013196AFE5B2E001900D928A95E1F7E2
:104BC0000E94C80590914D02891380934D028091F7
:104BD000AA03843009F09ACE83E08093E9008091A3
:104BE000E80082FF93CE8091E80090E085FF06C048
:104BF0000E941204882309F40CC191E08091E8001E
:104C00008B778093E800992309F480CEE981E15005
:104C1000E33108F09BC1F0E0E65AF54D0C9496297B
:104C20008091AA03843009F440C080E00E94D4053A
:104C300010926C0280914102811116C09092410243
:104C400080916F03982F9170909340028E7F809394
:104C50006F03FFEF20E742E0F15020404040E1F7D2
:104C600000C000000E94E10B10927B030FB6F89485
:104C7000A895E09260000FBEB092600083B7817F7C
:104C8000846083BF83B7816083BF7894889583B73E
:104C90008E7F83BF0FB6F894A895809160008861DD
:104CA00080936000109260000FBE8091A90388235A
:104CB00061F00E94A411EEE4F2E081919191892BC0
:104CC00009F0A3C2CE16DF06C1F78091AA03853092
:104CD00009F4A6CF0E946B130E94EC210E94C80524
:104CE0001092410280914002882349F080916F0325
:104CF000816080936F0360E086950E94CE100E94D1
:104D0000A60F0DCE6F5F880C991C6F3009F02BCE6B
:104D10000F5F1F4F0530110509F016CE8FEF8EA3E0
:104D20008FA318A60E9490058160782F9AA789A763
:104D30004EA15FA168A58AA50E9451213BCE863075
:104D400059F4F0E0E158FD4FE4910E2F10E0ABE391
:104D50008A2EAEE09A2E47CE893061F4E695F0E0D7
:104D6000E458FD4FE4910E2F10E0F1EA8F2EFDE0A4
:104D70009F2E39CE8F3061F4E695F0E0E758FD4F75
:104D8000E4910E2F10E0E0E38E2EEDE09E2E2BCE70
:104D9000853159F4F0E0EA58FD4FE4910E2F10E010
:104DA0007FED872E7CE0972E1ECE08E210E042E5D4
:104DB000842E4CE0942E883109F415CE833249F4C8
:104DC000E4E7F2E0059114916FED862E6DE0962EEA
:104DD0000ACE04EF11E056E1852E5CE0952E843278
:104DE00009F401CE00ED17E033E9832E36E0932E6F
:104DF000FACD81E08093610277CE81E080936202F8
:104E00007CCE81E080936302BBCE81E0809364021C
:104E1000C0CE00E210E0CE0101964C018091E80086
:104E200085FD0AC08091E8008B778093E8000E949E
:104E30001204882399F3E1CE8091F100D4018D937F
:104E40004D010150110951F7D8CE1A8289E08B83A8
:104E50001AC08A81823009F4EEC18330D9F18130E1
:104E600009F074C02FB7F89460917C0370917D03B2
:104E700080917E0390917F032FBF0E949C296B83BA
:104E80007C838D839E838091AA03843009F03ECD7C
:104E90001091E9001F709091EC00892F817090FDB6
:104EA00080E8182B82E08093E9008091E80080FF81
:104EB0000DC050E040E060E270E0CE0101960E943B
:104EC00043048091E8008E778093E8001F70109370
:104ED000E9001CCD80914E0290914F0298278927BE
:104EE00098279C838B838091500290915102982740
:104EF000892798279E838D83809152029091530237
:104F000098278927982798878F83809154029091BA
:104F100055029827892798279A8789878091560272
:104F2000909157029827892798279C878B87ABCF2A
:104F30008A81823059F46B817C818D819E810E94AF
:104F40009C2986E290E00E94F4299DCF8FEF89830F
:104F50009ACF4C816B818A810E94F10E9827892714
:104F600098279E838D838FCF8D809E80982489245F
:104F700098248A810B81BEE10B9F80011124E6E910
:104F80008E9F000D111D11248C8190E0880F991FB8
:104F9000080F191F692DC80187960E94F429682DF2
:104FA000C8018896D0CF0E946F0E6DCF8A8189305C
:104FB00061F48B81F3E08F9FC00111246FEF70E0EB
:104FC0000E944C29862F0E9478068A818138C1F080
:104FD00060F4803809F057CF20E04B816091710375
:104FE000809170030E94CE0F4ECF823859F18338E2
:104FF00009F049CF20E0409172036C818B81F2CFA0
:1050000060E08B810E94CE109B8180916F03911193
:1050100011C08E7F80936F0310926C022FEF40E7D8
:1050200082E0215040408040E1F700C000000E9433
:10503000E10B29CF816080936F0360E086950E9429
:10504000CE1021CF8B81809373031DCF8A8189304D
:1050500059F08A30C1F0813821F1B8F4803809F074
:1050600012CF80917203F3CE80917403869586955A
:105070008695AFEF8A9FC001112463E070E00E9423
:105080004C296B8300CF1B82FECE823891F083388F
:1050900009F0F9CE809170038B83809171038C832A
:1050A000F2CE80916F0380FF02C08695D0CE80E063
:1050B000CECE80917303CBCE809174030E94EC0E10
:1050C00060916F03709170038091710390917203EE
:1050D0000E94BC0FD8CE80E18A83D5CE81E08A833E
:1050E00081E8B5CE0A811B81102701271027FE0118
:1050F00031963F018C80CF01880D911D4C01C80174
:1051000081589D4F8614970409F4BDCE0138A1E063
:105110001A0750F40E94E029F30184830F5F1F4FA8
:10512000BFEF6B1A7B0AEBCFD30114961C92F6CF1C
:105130000A811B81102701271027FE0131963F01AC
:105140008C80800E912E911CC80181589D4F0815AE
:10515000190509F498CE0138F1E01F0728F4D301AE
:1051600014966C910E94F429BFEF6B1A7B0A0F5FB3
:105170001F4FEACF0E945F0E86CE84E0ADCF0A813A
:105180001B81102701271027FE0131963F018C80DB
:10519000CF01880D911D4C01C801879668147904D0
:1051A00009F471CE0835A2E01A0750F40E94E029F4
:1051B000F30184830F5F1F4FBFEF6B1A7B0AECCFA5
:1051C000D30114961C92F6CF0A811B811027012768
:1051D0001027FE0131963F018C80800E912E911C8C
:1051E000C80187968016910609F44DCE0835F2E085
:1051F0001F0728F4D30114966C910E94F429BFEF85
:105200006B1A7B0A0F5F1F4FEBCF09BD19BD09B4A5
:1052100000FEFDCF8091D8008F7D8093D8008091D3
:10522000E00082608093E0008091E00081FDFCCF8F
:105230000E946B134ACD86E290E00E94E0291B8217
:105240001C821D828E831FCE2B30310508F06ACC64
:10525000A0CC2B30310508F019CC4FCCDB018F935B
:105260009F930E94C129BF91AF91A29F800D911D74
:10527000A39F900DB29F900D1124089587FB082ED7
:10528000062687FD819567FD61950E94D4290EF45D
:10529000919507FC81950895AA1BBB1B51E107C09E
:1052A000AA1FBB1FA617B70710F0A61BB70B881FB6
:1052B000991F5A95A9F780959095BC01CD01089545
:1052C00097FB072E16F4009407D077FD09D00E94B3
:1052D0004C2907FC05D03EF4909581959F4F089589
:1052E000709561957F4F0895A1E21A2EAA1BBB1BF2
:1052F000FD010DC0AA1FBB1FEE1FFF1FA217B307A2
:10530000E407F50720F0A21BB30BE40BF50B661FB7
:10531000771F881F991F1A9469F76095709580957B
:1053200090959B01AC01BD01CF010895EE0FFF1FC9
:105330000590F491E02D099469279627692778272D
:105340008727782708950E94AB29332312F48A1BFC
:105350009B0B0C94BC29A29FB001B39FC001A39FDB
:10536000700D811D1124911DB29F700D811D11249E
:10537000911D08950E94AB29B7FF0895821B930BDE
:1053800008950E94AB29A59F900DB49F900DA49FF6
:10539000800D911D11240895B7FF0C94C1290E941E
:1053A000C129821B930B0895991B79E004C0991FB2
:1053B000961708F0961B881F7A95C9F7809508956F
:1053C000F999FECF92BD81BDF89A992780B50895CD
:1053D000A6E1B0E044E050E00C941A2AA8E1B0E065
:1053E00042E050E00C941A2A262FF999FECF92BD84
:1053F00081BDF89A019700B4021639F01FBA20BD9A
:105400000FB6F894FA9AF99A0FBE08950396272FCB
:105410000E94F5290E94F429252F0E94F529242FA6
:105420000C94F5290196272F0E94F5290C94F42954
:10543000DC01CB01FC01F999FECF06C0F2BDE1BD54
:10544000F89A319600B40D9241505040B8F7089543
:10545000FC014150504030F001900616D1F73197D1
:10546000CF010895882799270895FB01DC0104C026
:105470008D910190801921F441505040C8F7881B4C
:10548000990B0895F894FFCF66148E1431168E147C
:105490003116C114E2143116E015ED15601B601BC6
:1054A0009B1B9B1B491C631CCB1BCB1B6E1CDB1C5F
:1054B000EC1CEC1C252729279827A927B427D327DC
:1054C000D62726285C28A627A6276B286E287228B0
:0A54D0009828BA28BD28BF28E42858
:1054DA007E057D0B5C0B580B540B7D0501191A1BBD
:1054EA001C1D1E1F20212201020101818283E2006C
:1054FA00E900EA00B500B600B700CD008301CC0090
:10550A008A01920194012102230224022502260221
:10551A0027022A02B300B4006F00700030336736E6
:10552A0066F6F5F4F1C69593929190949697343570
:10553A000001020202020606060909090909090F01
:10554A000F0F0F0F0F151515181919191919191900
:10555A0019191923244022B684016201AC00F50608
:04556A000E072E07F3
:00000001FF
