:100000000C94DD060C9424070C9424070C9424070C
:100010000C9424070C9424070C9424070C942407B4
:100020000C9424070C9424070C94AC270C947E2881
:100030000C941C220C9424070C9424070C94240781
:100040000C9424070C9424070C9424070C94240784
:100050000C9424070C9484220C9424070C942407F9
:100060000C9424070C9424070C9424070C94240764
:100070000C9424070C9424070C9424070C94240754
:100080000C9424070C9424070C9424070C94240744
:100090000C9424070C9424070C9424070C94240734
:1000A0000C9424070C9424070C942407A108A3089B
:1000B000AE08A508A708A908AB08AD08B008B208A3
:1000C000B408BF08B608B808BA08BC08BE08C1081A
:1000D0000118011833183318B819B819B819B81914
:1000E0007118B8191219121984198D19B819B11982
:1000F0001F191F191F191F191F191F191F191F1940
:100100001F191F191F191F191F191F191F191F192F
:1001100030193E1945194C1956193B1A3B1A4D1AFC
:100120004D1A441A4D1A4D1A4D1A3B1A3B1A491AC8
:100130004D1A4D1A491AEB281229042A1229042AA9
:100140005E298129042AD729E62929001E001F00DB
:100150002000210022002300240025002600270083
:100160002D002E004C004B002B0014001A0008003C
:10017000150017001C0018000C00120013002F00BF
:1001800030002A004E003900040016000700090064
:100190000A000B000D000E000F0033003400280091
:1001A00028004A00E1001D001B00060019000500A0
:1001B000110010003600370038003100E500520011
:1001C0004D00E000E300E200C25CC35C2C002C00A8
:1001D0002C00E600E7000151E400500051004F0000
:1001E00001003A003B003C003D003E003F00400063
:1001F00041004200430044004500010001000100AD
:1002000001000100010001000100010001000100E6
:1002100001000100010001000100010001000100D6
:10022000C25CC35CC55CC65CC75CC85CC95CCA5CBC
:1002300001000100010001000100010001000100B6
:1002400001000100010001000100010001000100A6
:100250000100010001000100010001000100010096
:100260000100005C0100010001000100010001002B
:100270000100010001000100010001000100010076
:100280000100010001000100010001000100010066
:100290000100010001000100010001000100010056
:1002A0000100010001000100010001000100010046
:100AA0000100010001000100010000047F3F1F64FC
:100AB0003214643214783C1E1E140A0522232526A3
:100AC00028292A2C2D2F3032333536383A3B3D3EFB
:100AD0004042434547494A4C4E5051535557595A45
:100AE0005C5E6062646668696B6D6F71737577795F
:100AF0007B7D7F81838587898A8C8E90929496985E
:100B00009A9C9E9FA1A3A5A7A8AAACAEAFB1B3B46F
:100B1000B6B8B9BBBCBEBFC1C2C3C5C6C7C9CACBC4
:100B2000CCCDCED0D1D2D2D3D4D5D6D7D7D8D9D98F
:100B3000DADADBDBDBDCDCDCDCDCDDDDDDDDDCDCF8
:100B4000DCDCDCDBDBDBDADAD9D9D8D7D7D6D5D415
:100B5000D3D2D2D1D0CECDCCCBCAC9C7C6C5C3C2E1
:100B6000C1BFBEBCBBB9B8B6B4B3B1AFAEACAAA836
:100B7000A7A5A3A19F9E9C9A98969492908E8C8AEA
:100B800089878583817F7D7B79777573716F6D6BC5
:100B90006968666462605E5C5A5957555351504E9D
:100BA0004C4A4947454342403E3D3B3A383635334F
:100BB00032302F2D2C2A292826252322FFAA7F55C3
:100BC00040000000000000000000000101010101E0
:100BD00001010101020202020202020203030303F5
:100BE00003030304040404040505050505060606BD
:100BF000060607070707080808080909090A0A0A74
:100C00000B0B0B0C0C0C0D0D0D0E0E0E0F0F101010
:100C10001011111212131314141515161617171894
:100C20001819191A1A1B1C1C1D1D1E1F1F202121FB
:100C300022232324252526272828292A2B2C2C2D3E
:100C40002E2F30313132333435363738393A3B3C58
:100C50003D3E3F404142434445464748494B4C4D49
:100C60004E4F50525354555758595A5C5D5E60610F
:100C700063646567686A6B6C6E6F7172747677799E
:100C80007A7C7D7F8182848687898B8D8E909294F9
:100C90009597999B9D9FA1A2A4A6A8AAACAEB0B21D
:100CA000B4B6B9BBBDBFC1C3C5C8CACCCED0D3D5FD
:100CB000D7DADCDEE1E3E6E8EAEDEFF2F4F7F9FC9F
:100CC000FF040330000000140349004400370035DE
:100CD000004800530056003100310000000E03644C
:100CE000007A0074006500630068000000040309D6
:100CF0000409023B00020100A0FA090400000103FC
:100D000001010009211101000122400007058103B2
:100D100008000A0904010001030000000921110173
:100D20000001223B000705820320000A1201100186
:100D300000000008EDFE60600100010203010501F2
:100D40000906A1018505050719E029E71500250118
:100D50009508750181020508190129059505750198
:100D600091029501750391010507190029EF1500FE
:100D7000250195F075018102C005010906A1010553
:100D80000719E029E71500250195087501810295ED
:100D9000017508810105081901290595057501915D
:100DA000029501750391010507190029FF15002619
:100DB000FF00950675088100C00011241FBECFEF0B
:100DC000DAE0DEBFCDBF04B603FE27C08091670323
:100DD00090916803A0916903B0916A038730904BAA
:100DE000A740B04BD1F410926703109268031092A1
:100DF000690310926A0314BE84B7877F84BF0FB65D
:100E0000F894A895809160008861809360001092AA
:100E100060000FBEE0E0F8E3099511E0A0E0B1E06A
:100E2000E2E1F6E502C005900D92A635B107D9F7CB
:100E300023E0A6E5B1E001C01D92A736B207E1F7B5
:100E40000E94CE240C94072B0C9400000C942D07C8
:100E50000C942E0780E090E008950895089581E0B5
:100E60000895089581E008950C942F071F93CF9360
:100E7000DF9300D000D01F92CDB7DEB749835A83ED
:100E80002091900189819A81211112C0662349F035
:100E90000E94601F182F682F89819A810E94051F68
:100EA00003C00E94341F182F69817A81812F04C0EA
:100EB0000E94601F69817A810F900F900F900F90B0
:100EC0000F90DF91CF911F910C942F0AFC0140816C
:100ED00051816281738184810C9436070E94310DA7
:100EE0008FE39CE90197F1F700C000000E94310DEB
:100EF00080E00E94DC0C80FF04C00E9490200C94D3
:100F0000AA2208950C942807E82FE295EF70F0E0EC
:100F100032A1282F2F7081E090E001C0880F2A9520
:100F2000EAF78095832382A30895CF92DF92EF9210
:100F3000FF92843030F4811105C090918000977F3A
:100F400004C083E090918000986090938000282FE7
:100F500030E0AFEFBFEF0E94982A23E030E040E09E
:100F600050E00E94702A2C3784E138074105510572
:100F700030F4C90169E070E00E94482A29C0DA0112
:100F8000C9018A50974DAF4FBF4F6627782F892FE1
:100F90009A2F25EF38E241E050E00E94702A690163
:100FA0007A01CA01B9010E94382A9B01AC01C7012C
:100FB000B6010E94382ABB27A92F982F872F0097A8
:100FC00021E0A207B10511F0BC0102C06FEF7FEF75
:100FD00070938D0060938C00FF90EF90DF90CF9026
:100FE0000895279A87E30E9484078AE0809380000F
:100FF00089E1809381008FEF9FEF9093870080932A
:1010000086000C94E7220E946E070E9496208111B0
:1010100002C00E9419210E94F1070C9426070C942B
:1010200031070C940F0808950E942B1A0E94130890
:101030002FEF84E39CE0215080409040E1F700C016
:1010400000000C94AA220F931F93CF93DF938C017F
:101050000E946607EC01B8010E943407882309F456
:10106000F7C1B801CE010E948A14882309F4F0C1A7
:10107000CA3CFCE5DF0741F4F8018281882309F4CA
:10108000E7C10E94C810E4C1CB3C8CE5D80708F04A
:1010900012C1C33C9CE5D90761F4F8018281882321
:1010A00009F4D6C10E94E01F8272E1F00E94F3129F
:1010B000CFC1C43CECE5DE07C0F0C63C9CE5D907D7
:1010C00009F4CAC008F0DCC0C43CFCE5DF0709F045
:1010D000CBC0F8018281882309F4BAC10E94E01FC5
:1010E000827221F30E94E612B3C1C531FCE5DF072D
:1010F00008F07BC0C2308CE5D80708F452C0F80174
:101100008281882309F454C00E949620811102C074
:101110000E9419210E94A92090E090935803809387
:101120005703FE01E350FC45E231F10530F4EA5A81
:10113000FF4F809157030C94922A8091570381604E
:1011400027C0826025C0846023C0806121C0806286
:101150001FC080641DC080681BC08460886018C088
:101160008E7F16C08D7F14C08B7F12C08F7E10C003
:101170008F7D0EC08F7B0CC08F770AC08B7F877FDF
:1011800007C087FB222720F991E0922790FB87F97F
:1011900080935703809157030E94AD200E942B1A21
:1011A00057C1C1159CE5D90751F0C130DC4579F034
:1011B000C801DF91CF911F910F910C943207F80174
:1011C0008281882309F444C10E94140841C1F801B6
:1011D0008281882309F43CC180912802982F909540
:1011E00090FB80F98093280233C1C631FCE5DF070C
:1011F00039F50E94E01F282FF801828140911001EB
:1012000050911101882379F02A7A91E009F490E055
:1012100090935601911102C069E201C065E3CA01D1
:101220000E9480210AC080915601811102C069E2AA
:1012300001C065E3CA010E948B210E942C2008C1D5
:10124000C23CDC4509F0B4CFF8018281882309F45F
:10125000FFC00E940113FCC0F8018281882309F4B9
:10126000F7C00E948C10F4C0C53CDC4509F0A0CF4B
:10127000F8018281882309F4EBC00E947F10E8C046
:10128000F8018281C83CFCE5DF0731F4882309F4CA
:10129000DFC00E94AA10DCC0C93CDC4530F48823C2
:1012A00009F4D6C00E949B10D3C0882309F4D0C093
:1012B0000E94B910CDC0C13DECE5DE0791F4F80104
:1012C0008281882309F4C4C00E94FA0E8F3028F06E
:1012D0000E94FA0E843108F405CF8FE00E94F612C6
:1012E000B7C0C23DFCE5DF0708F05AC0CD3C8CE535
:1012F000D80739F4F8018281882309F4A9C081E074
:10130000EDCFCE3C9CE5D907C0F4CB3CECE5DE0745
:1013100041F4F8018281882309F49AC00E94020FE7
:1013200097C0CC3CDC4509F043CFF801828188238B
:1013300009F48EC00E94130F8BC0F8018281CF3C4C
:10134000FCE5DF0771F4882309F482C00E94FA0EDD
:10135000863028F00E94FA0E883008F4C3CE86E06A
:10136000BDCFC03DDC4570F4882309F471C00E94F4
:10137000FA0E823028F00E94FA0E853008F4B2CEC0
:1013800082E0ACCF882309F463C00E94FA0E893052
:1013900028F00E94FA0E8E3008F4A4CE89E09ECF89
:1013A000C53DECE5DE0739F4F8018281882309F4B4
:1013B0004FC083E293CFC63DFCE5DF0740F5F8015F
:1013C0008281C33DFCE5DF0729F4882309F440C08E
:1013D00088E184CFC43DDC4568F48823C9F10E94CC
:1013E000FA0E853128F00E94FA0E873108F47ACE81
:1013F00085E174CF882361F10E94FA0E893128F0CB
:101400000E94FA0E823208F46DCE89E167CFCD3D9D
:10141000ECE5DE0741F4F80182818823C9F082E01F
:101420000E946F2515C0CE3DFCE5DF0739F4F801B9
:101430008281882369F00E9419210AC0CC3DDC45D5
:1014400009F0B6CEF8018281882311F080E0E8CF60
:1014500080E0DF91CF911F910F91089508959FE053
:10146000799FF00111249BE4899FE00DF11D112467
:10147000E60FF11DEE0FFF1FE65BFE4F8591949185
:101480000895880F991FFC01E655F54F85919491B9
:101490000895CF93DF930E942F0A0E943C0CEC0129
:1014A000811521E5920708F042C0811560E5960795
:1014B00008F031C1883E910500F5803E910508F0A5
:1014C000D7C1883A910570F4853A910508F0A6C015
:1014D0008130910509F4CCC108F47DC1049708F06E
:1014E000C7C179C18F3B910508F4A3C0803C910529
:1014F00008F471C1805C9109FDC0C11580E3D80773
:1015000080F4C11590E2D90708F0F2C0C03FD105C0
:1015100008F461C1CF3FD10511F008F0A9C1D06531
:10152000A7C1C11520E4D20708F0F2C0E7C08115B9
:1015300069E5960760F5C11588E5D80708F037C159
:10154000C11594E5D90778F4C11523E5D20708F051
:1015500013C1C11562E5D60708F0F8C0DC2FCC270F
:10156000C16FD06A85C1C11585E5D80708F41AC1D5
:10157000C11596E5D90708F02EC18C2F0E94B90C31
:101580008F71C82FD0E0DC2FCC27D06271C18D3B8A
:101590002CE5920709F416C1F0F4CB3B8CE5D80793
:1015A00009F40AC108F00BC1C1152AE5D20708F0F9
:1015B00012C18C2F8F700E94B90C94E0D695C795FC
:1015C0009A95E1F7CF70D0E0DC2FCC27D06A8F70EE
:1015D000806EC82B4DC1803C9C4509F4F9C0C13CCC
:1015E0008CE5D80760F4CE3B9CE5D90709F4EDC043
:1015F000CF3BDC4509F0EFC0C0E0D2ED39C1CE01F0
:1016000090568115904208F0E6C08D2F8F710E9490
:10161000B90CDD27D0628F71D82B2AC1853A91058C
:1016200009F4DCC0863A910509F0DBC0C2E8D0E4D9
:101630001FC1883A910509F4D7C0893A910509F488
:10164000D6C08A3A910509F4D5C08B3A910509F4C0
:10165000D4C08C3A910509F4D3C08B3B910509F4B1
:10166000D2C08C3B910509F4D1C08D3A910509F4A3
:10167000D0C0803B910509F4CFC08E3A910509F4A2
:10168000CEC08F3A910509F4CDC0813B910509F494
:10169000CCC0823B910509F4CBC0833B910509F492
:1016A000CAC0843B910509F4C9C0853B910509F482
:1016B000C8C0863B910509F4C7C0873B910509F472
:1016C000C6C0883B910509F4C5C0893B910509F462
:1016D000C4C08D3B910509F4C3C08E3B910509F44C
:1016E000C2C08A3B910509F4C1C0C0E0D4E4C0C0C7
:1016F000CE019F700E94410AEC01BAC0CE01992729
:10170000D3FF03C0EC01D86CB3C0EC01D06CB0C007
:10171000DF70D06AADC0837021E030E002C0220FDC
:10172000331F8A95E2F73C68CE0174E09695879561
:101730007A95E1F78370382BCF70C695C69580E215
:10174000C89FE0011124C22BD32B92C04C2F469589
:10175000469590E2499FA0011124C370DD2721E046
:1017600030E0C90102C0880F991FCA95E2F7EC0169
:10177000C42BD52BDC687CC04C2F4695469580E267
:10178000489FA0011124C370DD2721E030E0C9018A
:1017900002C0880F991FCA95E2F7EC01C42BD52B24
:1017A000DA6866C0DC2FCC27C46FD06A61C0DC2F3A
:1017B000CC27C06FD06A5CC0C0E0D4ED59C0C0E097
:1017C000D5ED56C0C0E0D1ED53C0C0E0D0ED50C063
:1017D000C0E0D3ED4DC0C0E0D0E04AC0C1E8D0E4E5
:1017E00047C0C3E8D0E444C0C2EED4E441C0C9EE6F
:1017F000D4E43EC0CAEED4E43BC0C5EBD4E438C068
:10180000C6EBD4E435C0C3EBD4E432C0C4EBD4E4BB
:101810002FC0C7EBD4E42CC0CCECD4E429C0CDEC71
:10182000D4E426C0C3E8D5E423C0CAE8D5E420C088
:10183000C2E9D5E41DC0C4E9D5E41AC0C1E2D6E4CA
:1018400017C0C3E2D6E414C0C4E2D6E411C0C5E2B6
:10185000D6E40EC0C6E2D6E40BC0C7E2D6E408C0A8
:10186000CFE6D4E405C0C0E7D4E402C0CAE2D6E4BF
:10187000CE01DF91CF9108958238910549F1B0F4FE
:101880008133910509F458C048F48932910509F46F
:101890004EC08A32910509F454C0089585339105EC
:1018A00009F440C08933910599F00895833E91056C
:1018B00029F138F4803E910591F0823E9105A1F026
:1018C0000895863E9105F9F0873E910531F108951E
:1018D0002091570320FD3AC021FD38C00895809122
:1018E000570380FD35C032C08091570382FF32C05C
:1018F0008091570384FD30C083EE39C08091570337
:1019000082FD28C0F5CF8091570383FF27C08091C7
:10191000570384FD21C087EE2AC08091570383FDC1
:101920001DC0F5CF8091570385FD1AC01BC0809163
:10193000570385FD17C014C08091570386FD14C05E
:1019400015C08091570386FD11C00EC080EE0FC0F8
:1019500089E30DC082EE0BC080E009C086EE07C0AF
:1019600089E205C085E303C08AE201C081E390E01B
:1019700008959091570392FF0DC0282F28712830A9
:1019800019F4877F846006C0282F2471243011F455
:101990008B7F886093FF0DC0282F2871283119F4A0
:1019A000877E846106C0282F2471243111F48B7E38
:1019B000886194FD877E0895E82FF0E0EE0FFF1F09
:1019C000E95AFE4F8081918108950895ACE2B1E01B
:1019D00041E050E025E02A0F8D91E82FE295EF706D
:1019E000F0E031A18F70BA0102C0660F771F8A95AF
:1019F000E2F7CB01962F9095932391A392A1892B87
:101A000082A32A13E9CFADE1B1E041E050E02FE03D
:101A10002A0F8D91E82FE295EF70F0E031A18F70E1
:101A2000BA0102C0660F771F8A95E2F7CB01962FA5
:101A30009095932391A392A1892B82A32A13E9CF96
:101A4000E1E6F1E0A7E5B1E0119211921D921D923D
:101A500071E0EB36F707C1F785E00E94C80D0C94E2
:101A600003085F926F927F928F929F92AF92BF9284
:101A7000CF92DF92EF92FF920F931F93CF93DF935A
:101A80000CE211E0A1E6B1E0612CEE24E394F12C2C
:101A90005D018D909C90119711961C921E92E80109
:101AA00089918E01E82FE295EF70F0E091A18F709F
:101AB000A70101C0440F8A95EAF7892F842B81A3DF
:101AC00082A1542E5094852182A3D0EADA95F1F7B1
:101AD0008DE1C82E81E0D82E80E090E0E60179907B
:101AE0006E01272D22952F7030E0E90168A12D911C
:101AF0003C91119770E0D72DDF7002C07595679506
:101B0000DA95E2F760FD08C0B701082E02C0660F43
:101B1000771F0A94E2F702C060E070E0262B372BB3
:101B200011963C932E9301968F309105B9F681A1C1
:101B3000D52DD823D1A382A1482B42A3129681E0B0
:101B4000F501208131818216930609F480E0682A2C
:101B5000F1E0AB36BF0709F09BCF262D45E067E5E6
:101B600071E081E691E00E94C90D0E948207862DF6
:101B7000DF91CF911F910F91FF90EF90DF90CF9069
:101B8000BF90AF909F908F907F906F905F900895DF
:101B90000895FF920F931F93CF93DF93F82E092F91
:101BA000162FD72FC42F222349F081E080936D0197
:101BB0000E944E2290936C0180936B0180916D0185
:101BC0008823D9F080916B0190916C010E945A2278
:101BD000069798F0EF2DF02FA12FBD2F80E090E019
:101BE0004C2F50E08417950734F4219131912D93B7
:101BF0003D930196F7CF10926D01DF91CF911F9128
:101C00000F91FF900895CF92DF92EF92FF920F9382
:101C10001F93CF93DF937B01282F382FE82FF0E01D
:101C2000F11006C0EF53F44F6491762F862F7BC0DE
:101C30000F2D10E046E0649FC0011124CFEFD0E0EB
:101C4000BE010E94482AAB016BEA6403C001659F94
:101C5000900D11248E0D911D8E0D911D982F990FB1
:101C6000890FBE01601B710B6E9FD0016F9FB00D7D
:101C70007E9FB00D11249B2F8F9DB0011124672FE3
:101C800077277E01E61AF70AEE9EB001EF9E700DEF
:101C9000FE9E700D11246E01C81AD108C09E7001FD
:101CA000C19EF00CD09EF00C11240F2D1127C01BEB
:101CB000D10BCE9F8001CF9F100DDE9F100D112400
:101CC000812F4230510591F04CF441155105E1F05E
:101CD00041305105B9F4822F272F16C044305105E9
:101CE00069F044F04630510579F00CC0822F2B2F5B
:101CF000912F0AC02B2F932F872F06C08B2F922F47
:101D0000212F02C08B2F972FE22FF0E0EF53F44FDB
:101D10007491E82FF0E0EF53F44F6491E92FF0E075
:101D2000EF53F44F8491DF91CF911F910F91FF906A
:101D3000EF90DF90CF9008950895CF93DF93762FA3
:101D4000E901682F842F0E94030E798368838A83B8
:101D5000DF91CF910895433308F042E30C949D0E38
:101D600080914F02282F269530E02115310519F476
:101D70008170826005C02532310524F0817088644D
:101D800080934F0280915202833318F082E3809354
:101D90005202089588E090E00C94C72ACF93DF9315
:101DA00000D000D0CDB7DEB7AB01BC0149835A8368
:101DB0006B837C830E94B00E49815A816B817C8148
:101DC00088E090E00F900F900F900F90DF91CF91EF
:101DD0000C94E52AEFE4F2E083E0808311828FEF38
:101DE000828382E383831482608171818281938103
:101DF0000C94CE0E80914F0280FF02C0869508950C
:101E000080E0089580915302833018F48F5F8093AF
:101E1000530260914F027091500280915102909153
:101E200052020C94CE0E80915302882319F08150F7
:101E30008093530260914F02709150028091510241
:101E4000909152020C94CE0E6091040170E080914A
:101E50004F0280FF0AC08091720123E0829FC0017F
:101E600011248C5A9D4F0C941A14809171019091F9
:101E70000301891780F7E82FF0E09F01220F331F3D
:101E8000E20FF31FEC5AFD4F1182108212828F5F16
:101E9000F0CF90914F0290FF16C090917101209168
:101EA0000301921770F4E92FF0E0DF01AA0FBB1FC6
:101EB000EA0FFB1FEC5AFD4F8183608342839F5FD3
:101EC000F0CF0C94240F0895CF93DF9300D01F928E
:101ED000CDB7DEB790914F0290FF0AC09E012F5FF1
:101EE0003F4F0E94AB0E4B8169818A810E94490F4E
:101EF0000F900F900F90DF91CF910895CF93DF93C4
:101F0000EC01EC81F0E0E454F54F4491EFE4F2E0B1
:101F1000628181810E94640F8C818F5F8C83DF914D
:101F2000CF910895CF93DF93EC01EFE4F2E043818A
:101F300062818C810E94640F8C818F5F8C83DF9122
:101F4000CF9108950F931F93CF93DF9300D01F92EB
:101F5000CDB7DEB78C0180916E0181110AC09E0160
:101F60002F5F3F4F42E36FEF0E94AB0E8A81809359
:101F70006E01F8018481813051F028F0823061F4E3
:101F800040916E010AC080916E0140E007C06091EF
:101F90006E0140E080E003C040E080E060E00E942D
:101FA000490FF801248130E0C901019663E070E037
:101FB0000E945C2A84830F900F900F90DF91CF9145
:101FC0001F910F910895AF92BF92CF92DF92EF923F
:101FD000FF920F931F93CF93DF9300D01F92CDB743
:101FE000DEB7182FF62E042FE22E90914F0290FFAD
:101FF0006EC0E92FE695AE2FB0E0AF5CBE4F8C917E
:1020000080937A019E7F923061F49E012F5F3F4F53
:10201000812F0E94AB0E4B8169818A810E94490FFA
:1020200044C0823019F4009152023FC0863019F446
:10203000109150023AC08930D9F38931B1F5E95194
:102040008E2F8170D82EE695F0E0E454F44FA590E1
:10205000B490C12CBB2460910201C61620F5EC2D72
:10206000F0E0EA9DC001EB9D900DFA9D900D1124CA
:1020700070E00E94482A812FD11002C0860F01C053
:10208000861B90917101E90FF11D9F01220F331FF3
:10209000E20FF31F9F012C5A3D4F402F6F2D0E94DE
:1020A000AB0EC394D8CF0E94240F10935002F0922D
:1020B000510200935202EE2051F060914F02709154
:1020C000500280915102909152020E94CE0E0F90C8
:1020D0000F900F90DF91CF911F910F91FF90EF9094
:1020E000DF90CF90BF90AF900895EFE4F2E0918140
:1020F000282F4381628188E0890F0C94E30F81E0EF
:102100000C947510EFE4F2E09181282F43816281F5
:1021100088EF890F0C94E30F81E00C948210EFE4B8
:10212000F2E0628128E0620F08F46FEF282F43810C
:1021300081810C94E30F81E00C948F10EFE4F2E0C6
:10214000628128E0621B08F460E0282F43818181CE
:102150000C94E30F81E00C949E10EFE4F2E04381D5
:1021600028E0420F08F44FEF282F628181810C9400
:10217000E30F81E00C94AD10EFE4F2E0438128E03E
:10218000421B08F440E0282F628181810C94E30F08
:1021900081E00C94BC1020E00C94E30FFF920F93AD
:1021A0001F93CF93DF93EC01F12C0FEF10E06091C0
:1021B0000201F616E8F42091710130E02F0D311D77
:1021C000C901880F991F280F391F2C5A3D4F70E005
:1021D000C8010E945C2A962F8C8140915202609126
:1021E0005102F99E800D11240E94AB0EF394DFCFB3
:1021F0000E94240F9A818C8190FF02C08F5F01C0E2
:1022000081508C83DF91CF911F910F91FF900895A2
:10221000BF92CF92DF92EF92FF920F931F93CF93D3
:10222000DF93FC01828180FF02C00FEF01C001E05B
:1022300010E0809102011817E0F5C12ED12C809199
:102240007101E601C80FD11DCE01880F991FC80F7B
:10225000D91FCC5ADD4F198218821A8234E0E32E3E
:10226000F12CB12C809170018B0D87FF03C09091F0
:102270000201890F082E000C990BC816D90691F49B
:10228000809152028E9DA0018F9D500D1124559575
:102290004795559547959E01609151028091500256
:1022A0000E94AB0EB00EF1E0EF1AF108D9F61F5FF5
:1022B000C0CF0E94240F80917001013031F4811150
:1022C00002C080910201815007C090E001966091A8
:1022D000020170E00E945C2A80937001DF91CF912F
:1022E0001F910F91FF90EF90DF90CF90BF900895D6
:1022F000CF938091710190910301891770F4E82FB9
:10230000F0E09F01220F331FE20FF31FEC5AFD4F45
:102310001182108212828F5FF0CFC0E060910201C3
:10232000C617B8F5EC2FF0E070E0CF010E945C2AF0
:1023300040917101480F80916F01082E000C990B9C
:1023400050E0E817F907C4F020910101022E000CBB
:10235000330B2E173F0784F09A01220F331F240FEF
:10236000351F2C5A3D4F409152026091510280918D
:1023700050020E94AB0E0BC0FA01EE0FFF1F4E0F72
:102380005F1FFA01EC5AFD4F118210821282CF5F5B
:10239000C5CF0E94240F2091000180916F01820F10
:1023A00080936F0190910101920F90930101191692
:1023B0005CF4082E000C990B4091020150E0415052
:1023C0005109841795071CF0219520930001CF91A6
:1023D00008950F931F93CF93DF938C01FC018481A9
:1023E000958101968170992795838483C0E0D5E516
:1023F00080910201C817F8F42091710130E02C0F90
:10240000311DC901880F991F280F391F2C5A3D4FC4
:102410004C2F4695F80184819581840F911D817020
:1024200040915202609151028D9F802D11240E9493
:10243000AB0ECF5FDDCFDF91CF911F910F910C9449
:10244000240F0F931F93CF93DF93EC0100E010E074
:1024500080910201282F30E00217130724F5909194
:1024600071019801290F311DA901440F551F240F37
:10247000351F2C5A3D4F869590E04C81081719075F
:102480001CF4442331F002C0411103C040915202B8
:1024900001C040E060915102809150020E94AB0E59
:1024A0000F5F1F4FD5CF0E94240F2C8130E02F5F8C
:1024B0003F4F217033272C83DF91CF911F910F91D4
:1024C0000895EFE4F2E080818E7F808360817181E6
:1024D000828193810E94CE0E10927B012FEF80E7C4
:1024E00092E0215080409040E1F700C000000C9441
:1024F000240FEFE4F2E080818E7F808310927B01D5
:102500002FEF80E792E0215080409040E1F700C03B
:1025100000000C94240F60914F02669570E04BE030
:1025200050E085E091E00E94B22A892B19F481E005
:1025300080937B010E944E229093740180937301DB
:10254000089590914F0290FF35C09170811102C0A3
:10255000926006C0853210F0986402C0880F982BF4
:1025600090934F02662351F060914F027091500298
:1025700080915102909152020E94CE0E60914F02C2
:10258000669570E04BE050E085E091E00E94B22A51
:10259000892B19F010927B0102C00E948B1281E0FE
:1025A00080937601409152026091510280915002D5
:1025B0000C94CB100895682F90914F02969581E06E
:1025C000890F853208F081E00C94A11281E00C940F
:1025D000DB12682F90914F0296958FEF890F09F4C7
:1025E00084E20C94A11281E00C94E91261E00C9455
:1025F000A112EFE4F2E080818160808386950C94E3
:10260000F61280914F0280FD0C9461120C94F91225
:1026100060E00C94A11280917901811133C0809106
:1026200028028160809328020E949620811104C0B4
:102630000E9419210E94EA0E0E94CA0E60934F0266
:102640007093500280935102909352026E7F61F416
:102650000E94EA0E0E94CA0E60934F0270935002CD
:1026600080935102909352020E94B00E10927B010F
:1026700080914F0280FF03C086950E94081381E07D
:10268000809379010895EFE4F2E080818160808396
:1026900086950C94081310927B0108950F931F9355
:1026A000CF93DF9380917B01882309F48CC08091C4
:1026B0007A01E0914F02E695E81BE09375018230C4
:1026C00049F4F0E0E854F54FE491CE2FD0E00EE766
:1026D0001FE049C0863049F4F0E0EB54F54FE49137
:1026E000CE2FD0E002E91FE03EC0893051F4E695DC
:1026F000F0E0EE54F54FE491CE2FD0E00EEC10E177
:1027000032C08F3051F4E695F0E0E155F54FE49199
:10271000CE2FD0E008E011E126C0853149F4F0E089
:10272000E455F54FE491CE2FD0E008E711E11BC04E
:10273000883181F0833239F4EAEAFAE0C591D49124
:1027400002EA1FE010C0843251F4C4EFD1E001E28C
:1027500012E109C0C8EED3E009EE11E104C0C0EDFA
:10276000D7E00CE91EE080917601882389F0109271
:1027700076010E944E229E0120953095820F931F74
:1027800090937401809373011092780110927701F5
:1027900080917301909174010E945A228C179D07B9
:1027A00090F0E0917301F0917401CE0FDF1FD09390
:1027B0007401C093730183E791E0F801DF91CF9139
:1027C0001F910F910994DF91CF911F910F9108955F
:1027D00021B3342F3095232331B3432B3FB7F894E3
:1027E000FC01680F791FE617F70789F0819198E0DF
:1027F00041BB000000C087FF21BB880F000000C064
:1028000000C000C021BB00C09A9591F7ECCF3FBF3C
:10281000089520B3242B20BB9B01220F331F620F8E
:10282000731F0E94E81387EC90E00197F1F700C056
:102830000000089541E00C9409140F931F93CF9367
:10284000DF93C62FD42F022FFC0182818823C9F089
:1028500060937E010E944E2290937D0180937C01C3
:1028600080E28C0F883008F050C0C77081E001C052
:10287000880FCA95EAF7DF91CF911F910F910C94C1
:10288000BD1710917E01161330C080917C0190918C
:102890007D010E945A22883C910538F5C0E2CD0F97
:1028A0001D17B9F080E2810F883040F4177081E085
:1028B00001C0880F1A95EAF70E94C417C83048F47F
:1028C00081E09D2F977001C0880F9A95EAF70E94CA
:1028D000BD17802F0E94AA17C830B8F4D77081E0C6
:1028E00001C0880FDA95EAF70AC080E28C0F8830C1
:1028F00060F4C77081E001C0880FCA95EAF7DF91E4
:10290000CF911F910F910C94C417DF91CF911F911C
:102910000F9108959C01CB01203F4CE53407F9F05D
:1029200078F4283DFCE53F07B9F0293D4CE5340734
:1029300011F1273D3C4531F526E241EE61EE1EC026
:10294000223FFCE53F0799F070F0233F3C45D1F46E
:1029500027E245EE66EE12C027E245EE0EC026E203
:1029600041EE60EE0BC027E245EE64EE07C026E2C2
:1029700041EE62EE03C028E241E065EE0E941D14C4
:1029800080E00895FC018281882319F010927E0175
:10299000089581E0089590938401809383010895C0
:1029A000E0918301F0918401309721F00190F08152
:1029B000E02D099480E00895E0918301F091840175
:1029C000309799F020911C01222359F02091570350
:1029D00027FF07C0DC012C9111962C93119725E05D
:1029E0002C930280F381E02D0994089520918101B8
:1029F000309182018217930771F090938201809346
:102A00008101E0918301F0918401309721F00680EB
:102A1000F781E02D0994089520917F013091800184
:102A20008217930771F09093800180937F01E0916A
:102A30008301F0918401309721F00084F185E02D2D
:102A40000994089585B7806885BF85B7806885BF7C
:102A50000895089508950C942A1508950C942D1541
:102A60000E9422150E9429150C942B1581E00895CF
:102A70000E9445220E94E60C0E94CE220E94E7227C
:102A80000E940B130C942E154F925F927F928F929F
:102A90009F92AF92BF92CF92DF92EF92FF920F93ED
:102AA0001F93CF93DF93CDB7DEB72A970FB6F89475
:102AB000DEBF0FBECDBF0E94310D0E9436158111C1
:102AC00011C08FEF89838A831B820E944E2281600E
:102AD000782F9D838C8349815A816B818D810E94DF
:102AE000001657C096E8C92E91E0D92E00E010E0FC
:102AF000AA24A394B12C702E802F0E94DC0C4C01D0
:102B0000F601419051906F01482659264114510415
:102B100031F40F5F1F4F0530110569F7D2CF809157
:102B2000280281FD0E94E50C20E030E07501022EB4
:102B300002C0EE0CFF1C0A94E2F7C7018421952124
:102B4000892B09F12E837F828E209F2091E0892896
:102B500009F490E098870E944E228160782F9A872E
:102B600089874E815F8168858A850E940016000FE3
:102B7000111FF801EA57FE4F80819181E826F9265E
:102B8000F182E08206C02F5F3F4F2F30310571F692
:102B9000C0CF109185010E94D0141817D9F00E945F
:102BA000D014809385012A960FB6F894DEBF0FBE2D
:102BB000CDBFDF91CF911F910F91FF90EF90DF90EC
:102BC000CF90BF90AF909F908F907F905F904F90ED
:102BD0000C9411082A960FB6F894DEBF0FBECDBF35
:102BE000DF91CF911F910F91FF90EF90DF90CF90E9
:102BF000BF90AF909F908F907F905F904F9008957F
:102C0000CF93DF93CDB7DEB72B970FB6F894DEBF27
:102C10000FBECDBF4F83588769877A878B87DE01C8
:102C2000119686E0FD0111928A95E9F785E0FE0193
:102C3000379601900D928A95E1F749815A816B810F
:102C40007C818D819E810E94D51C2B960FB6F894B5
:102C5000DEBF0FBECDBFDF91CF910895FC01808113
:102C600091810E94A11F0895882309F413C1682F40
:102C70008238C1F40E94D01481FD0CC169E38091B7
:102C80001001909111010E9480210E942C202FEFB1
:102C900081EE94E0215080409040E1F700C00000B8
:102CA00069E319C08338F9F40E94D01480FDF2C0A2
:102CB00063E580911001909111010E9480210E9492
:102CC0002C202FEF81EE94E0215080409040E1F7DE
:102CD00000C0000063E580911001909111010E94F5
:102CE0008B210C942C208438C1F40E94D01482FDD6
:102CF000D1C067E480911001909111010E94802160
:102D00000E942C202FEF81EE94E0215080409040D3
:102D1000E1F700C0000067E4DECF8CEF860F813A58
:102D200038F480911001909111010E948021D9CF37
:102D300080E2860F883048F4677081E001C0880F18
:102D40006A95EAF70E94E31FCCCF8BE5860F8330AC
:102D500070F4653A29F0663A31F083E890E005C0F6
:102D600081E890E002C082E890E00C94F61488E5D7
:102D7000860F873108F08EC0683A09F445C0693A79
:102D800009F445C06A3A09F445C06B3A09F445C0F4
:102D90006C3A09F445C06B3B09F445C06C3B09F43F
:102DA00045C06D3A09F445C0603B09F445C06E3A30
:102DB00009F445C06F3A09F445C0613B09F445C0C8
:102DC000623B09F445C0633B09F445C0643B09F428
:102DD00045C0653B09F445C0663B09F445C0673B07
:102DE00009F445C0683B09F445C0693B09F445C096
:102DF0006D3B09F445C06E3B09F445C06A3B09F4DC
:102E000045C080E090E044C082EE90E041C089EE91
:102E100090E03EC08AEE90E03BC085EB90E038C089
:102E200086EB90E035C083EB90E032C084EB90E01D
:102E30002FC087EB90E02CC08CEC90E029C08DEC8B
:102E400090E026C083E891E023C08AE891E020C0AA
:102E500082E991E01DC084E991E01AC081E292E02C
:102E600017C083E292E014C084E292E011C085E2D0
:102E700092E00EC086E292E00BC087E292E008C0CA
:102E80008FE690E005C080E790E002C08AE292E021
:102E90000C940C150895882309F45BC0682F8238C0
:102EA00079F40E94D01481FF54C069E3809110012D
:102EB000909111010E9480210E942C2069E310C092
:102EC0008338B1F40E94D01480FF43C063E5809141
:102ED0001001909111010E9480210E942C2063E535
:102EE00080911001909111010E948B210C942C2053
:102EF000843879F40E94D01482FF2BC067E480915B
:102F00001001909111010E9480210E942C2067E401
:102F1000E7CF8CEF860F813A18F380E2860F883076
:102F200048F4677081E001C0880F6A95EAF70E9453
:102F3000E91FDCCF8BE5860F833020F480E090E042
:102F40000C94F614685A673120F480E090E00C94F9
:102F50000C150895CF93C82F0E943416C93349F435
:102F60002FEF83EC99E0215080409040E1F700C0C2
:102F700000008C2FCF910C944B17882321F00E94D6
:102F8000E31F0C942C200895882321F00E94E91F50
:102F90000C942C2008954F925F926F927F92BF9273
:102FA000CF92DF92EF92FF920F931F93CF93DF9315
:102FB0007C01062FC72FFC01158112951F70D2814D
:102FC000D1110E9400200E94D91F882379F0DD23AF
:102FD00069F080E2800F883048F082E00E9477201C
:102FE0000E94D91F91E0B82EB92601C0B12CCC2E79
:102FF000C2948FE0C822D12CF601E859FF4F0C94FF
:10300000922A8C2F807FCF70882311F0C295C07FC9
:10301000DD2399F0CC2309F462C180E2800F88306F
:1030200010F0011104C08C2F0E94E31F03C08C2FED
:103030000E94F31F0E942C2052C1802F0E944B1728
:10304000CC2309F495C180E2800F883010F0011183
:1030500004C08C2F0E94E91F03C08C2F0E94F91F0F
:103060000E942C2085C18C2F807FCF70803211F080
:10307000C295C07F002319F00130C9F022C0DD23C2
:1030800071F0112341F0113031F40E9413208C2B88
:103090000E9419206DC10E9413208C2BD8C01123CF
:1030A00019F0113009F464C10E94222018C0DD23F8
:1030B00021F0163008F05CC10EC0153008F058C180
:1030C0000EC0DD2351F0112331F0F701858180FF1F
:1030D00006C18F7085838C2FBAC0111111C18C2F3E
:1030E000BCC08C2F837009F04BC0D1114DC1202F73
:1030F000229526952770220F220F602F6F70862F42
:1031000090E0A0E0B0E02C013D01022E04C0440C90
:10311000551C661C771C0A94D2F704FF10C08FE080
:1031200090E0A0E0B0E004C0880F991FAA1FBB1F69
:103130002A95D2F780959095A095B09503C080E030
:1031400090E0DC01C695C695C370D0E0BC01CD010E
:103150006429752986299729C230D10559F0C330D1
:10316000D10559F0219719F00E941A1E0DC10E9435
:10317000081E0AC10E942C1E07C10E94061E04C11F
:10318000DD2319F08C2F817001C08695882309F406
:10319000FBC0202F229526952770220F220F602F2B
:1031A0006F70862F90E0A0E0B0E02C013D01022E70
:1031B00004C0440C551C661C771C0A94D2F704FF0B
:1031C00010C08FE090E0A0E0B0E004C0880F991F2D
:1031D000AA1FBB1F2A95D2F780959095A095B09510
:1031E00003C080E090E0DC01C695C695C370D0E0D6
:1031F000BC01CD016429752986299729C230D105E2
:1032000059F0C330D10559F0219719F00E94E01E02
:10321000BBC00E94CE1EB8C00E94F21EB5C00E9464
:10322000411EB2C0802F90E0FC01E05EF109E53163
:10323000F10508F050C0E858FF4F0C94922A0F7027
:103240008C2F8F71DD2331F00E94671E802F0E942A
:10325000BD178EC00E94881E802F0E94C41788C090
:10326000DD2341F0153008F083C08C2F8F710E9450
:10327000AD1E7EC0163008F07BC0F7CFDD2339F0DD
:103280008C2F8F710E94671E73C0DD23C9F38C2FB2
:103290008F710E94881E6CC0DD2329F08C2F8F71E6
:1032A0000E94521E65C00E944D1E62C0DD2349F07F
:1032B000CF718C2F0E94671E63E08C2F0E946220CA
:1032C00057C081E00E947720123008F451C082E09C
:1032D0000E9477204DC0DD2331F0112389F2802F29
:1032E0000E94341645C0112391F2093349F4FFEFCF
:1032F00023EC89E0F15020408040E1F700C000005D
:10330000802F0E944B1734C04C2F4F70602FC70185
:103310000E942A070E94791D3BC0D11139C0CF708D
:10332000D0E0C230D10599F03CF4209769F02197A4
:10333000F9F40E9421232CC0C430D10571F054F05F
:103340002597B1F480E00AC00E94042321C00E94A6
:1033500060231EC00E9467231BC083E00E948A2353
:1033600017C04C2F4F70602FC7010E942E0A10C04B
:1033700098E0C916D10441F05CF0FAE0CF1AD10808
:1033800022E0C216D10420F40E94D0140E94110839
:10339000BB20F1F00E94D51F80FD1AC0F7011282F8
:1033A0000E94CF1F0E94671EC7010E94F6190E944B
:1033B000CF1FDF91CF911F910F91FF90EF90DF9082
:1033C000CF90BF907F906F905F904F900C94881E2D
:1033D000DF91CF911F910F91FF90EF90DF90CF90F1
:1033E000BF907F906F905F904F9008950F931F93C1
:1033F000CF93DF93EC01888199812B813C81232B32
:10340000B9F09F3F11F48F3F99F0CE010E9423083D
:10341000882371F0688179818A810E94AC1F8C01B8
:103420000E94041F0E94051EB801CE010E94CB1706
:10343000DF91CF911F910F9108950E9400200E946B
:1034400010200C942C2080911001909111010E9469
:1034500096210C941D1A0E94F01F0C94231AE92F38
:10346000E295EF70F0E03297EE30F105B0F4E357FB
:10347000FF4F0C94922A803F91F018F4803E68F43C
:103480000EC0843F51F40BC0803E48F0813F29F4C8
:1034900006C093FB882780F9089580E0089581E0B5
:1034A00008950E94A11F0E942F1A0895CF93DF93C1
:1034B00000D000D01F92CDB7DEB70F900F900F90C5
:1034C0000F900F90DF91CF910895CF93DF9300D0AD
:1034D00000D000D0CDB7DEB726960FB6F894DEBF89
:1034E0000FBECDBFDF91CF9108951F93CF93DF9390
:1034F000C091910116E080919201C81799F0D0E037
:103500001C9FF0011D9FF00D1124ED56FE4F4081D0
:10351000518162817381848195810E94651A21960F
:10352000C770E9CFDF91CF911F9108954091C301FA
:103530005091C4016091C5017091C6018091C7018D
:103540009091C8010C94651A8091C80182958F7082
:1035500009F054C08091C501882309F44FC08091BF
:103560009101A09192016091C3017091C4014091B9
:10357000C6015091C701B6E08A1709F43FC090E038
:1035800041155105C1F17F3F11F46F3FA1F1B89F83
:10359000F001B99FF00D1124ED56FE4F21817213F9
:1035A0002AC02081621327C02281211124C02381D7
:1035B00034812417350710F421503109241B350BB1
:1035C000283C3105C0F42091C8012F702061209360
:1035D000C80126E0289FF001299FF00D1124E8562C
:1035E000FE4F80818F708061808383EC91E00E9428
:1035F000F6190C94751A01968770BECF0895CF9274
:10360000DF92EF92FF920F931F93CF93DF93CDB78B
:10361000DEB762970FB6F894DEBF0FBECDBF8C0148
:1036200085E0F801DE011D9601900D928A95E1F783
:10363000D8014C9111965C91119712966C9112974A
:103640001396CD90DC9014973091C3017091C40112
:103650008091C6019091C701009709F46BC17F3F2B
:1036600019F43F3F09F466C1E090C501EE2009F46A
:10367000C0C02091C801C816D90628F0F601E81B81
:10368000F90BCF0104C0809590958C0D9D1DFF24F2
:10369000F394883C910578F0F12C207F09F0C6C0A6
:1036A0007C2DD98AC88A89890E94561A83EC91E0B8
:1036B0000E94F619B1C0822F807F09F046C07513B1
:1036C00014C0341312C0611110C02F7020612093F8
:1036D000C8010E94961A83EC91E00E94F61980912D
:1036E000C801D80115968C932EC0CD2819F15F3FE3
:1036F00011F44F3FF9F0F62E61111CC08091910139
:103700002091920136E0821709F45AC090E0389F68
:10371000F001399FF00D1124ED56FE4F71815713C2
:1037200006C07081471303C07281711103C00196F6
:103730008770E9CFF62E662309F427C18091C8016E
:1037400081608093C801F12C20C1751308C0341327
:1037500006C0611104C08091C801D801C3C04D8763
:103760005E878D859E856A8B0E94511A6A8988239F
:10377000E1F16623D1F12091C801822F82958F70EB
:1037800090E0029774F08091C3019091C4019887F2
:103790008F831986DB86CA862C87CE0107960E9406
:1037A000F61986E0F801A3ECB1E001900D928A953C
:1037B000E1F70E94A41A0E94961AFF24F394E5C030
:1037C0004D875E878D859E850E94A11F292F22959A
:1037D0002F7030E0223031050CF0CBC09F7009F023
:1037E000C5C0805E883008F4D0C0C8010E94F619B8
:1037F000E4CFC816D90608F453C0F601E81BF90B4C
:10380000CF01883C910508F450C0F12C7C2DD98A59
:10381000C88A89890E94561AE3ECF1E086E0DF014C
:103820001D928A95E9F70E94961AAFC0751314C0CD
:10383000341312C0611110C08091C801F801858352
:10384000C8010E94F61986E0E3ECF1E0DF011D9269
:103850008A95E9F7FE2C99C04D875E878D859E85F8
:103860006A8B0E94511A6A89882309F4BECF6623A5
:1038700009F4BBCF2091C801822F82958F7090E010
:1038800002970CF48ECF8091C3019091C4019A836A
:1038900089831B82DD82CC822E83CE0101967FCF6D
:1038A000809590958C0D9D1DACCFF62E662309F466
:1038B0009CCF75132EC034132CC02091C80120FD5D
:1038C0001FC0822F82958F70D9F0D80115962C9346
:1038D00015978F3049F08F5F982F9295907F822FA8
:1038E0008F70892B15968C93C8010E94F61986E07B
:1038F000F801A3ECB1E001900D928A95E1F793CF26
:1039000086E0F801A3ECB1E001900D928A95E1F711
:103910003CC04D875E878D859E850E94511A81111E
:1039200040CF8091C80181608093C801C8010E9486
:10393000F6192BC0662309F458CF4D875E878D8515
:103940009E850E94511AF82E882309F44ECF86E0F6
:10395000F801A3ECB1E001900D928A95E1F783ECB8
:1039600091E00E942E160E94A41A5DCF811139CFDA
:103970000CC0243031050CF038CF9F7009F431CFE2
:10398000F8019581907F09F02CCF8F2D62960FB6AC
:10399000F894DEBF0FBECDBFDF91CF911F910F9185
:1039A000FF90EF90DF90CF9008951F93CF93DF9318
:1039B000CDB7DEB72C970FB6F894DEBF0FBECDBFE4
:1039C0004F83588769877A878B879C87CE010796B4
:1039D0000E94FF1A882369F08F8198852A853B858C
:1039E000232BF1F19F3F09F063C08F3F09F060C0C6
:1039F00037C086E0FE013796DE01119601900D92E8
:103A00008A95E1F76F817885EA85FB85309741F1EA
:103A10007F3F11F46F3F21F12091920130E0C90105
:103A20000196877099274091910150E0841795077E
:103A300009F447C069837A83FD83EC8396E0929F03
:103A4000D001939FB00D1124AD56BE4FFE013196AB
:103A500001900D929A95E1F7809392010E94751A58
:103A600016E080919101909192018917C1F1189F00
:103A7000C00111248D569E4F0E94FF1A882379F1B0
:103A8000E09191011E9FF0011124ED56FE4F4081FF
:103A9000518162817381848195810E94651A809130
:103AA000910190E001968770992780939101D9CF79
:103AB0004F81588569857A858B859C850E94651A1A
:103AC000CFCF0E942B1A1092920110929101E3EC39
:103AD000F1E086E0DF011D928A95E9F7C1CF2C96CF
:103AE0000FB6F894DEBF0FBECDBFDF91CF911F910F
:103AF0000895EF92FF920F931F93CF93DF938C0162
:103B0000892B09F46CC0F12CEE24E394E801219692
:103B1000F8018491843740F4843008F051C081303A
:103B200081F0823019F15BC0853709F444C0A8F1F7
:103B30009CE7980F903708F052C08F770E944B1780
:103B400041C00E5F1F4FFE01C49180E28C0F883090
:103B500048F4C7708E2D01C0880FCA95EAF70E94FD
:103B6000032014C08C2F0E9434162DC00E5F1F4FEF
:103B7000FE01C49180E28C0F883058F4C7708E2DFE
:103B800001C0880FCA95EAF70E9409200E942C20E4
:103B90001AC08C2F0E944B1716C00E5F1F4FFE01DC
:103BA000C491CC2381F08FE99FE00197F1F700C029
:103BB0000000C150F6CF0E5F1F4FFE01F49003C00E
:103BC0000E9434168E018F2D882309F49FCFEFE9D0
:103BD000FFE03197F1F700C000008150F5CFDF9191
:103BE000CF911F910F91FF90EF90089508950C943D
:103BF000F61D0E94F71D6093FF01709300028093F1
:103C00000102909302020C941D1A08950C94F91D60
:103C10000F931F930091FF01109100022091010268
:103C200030910202602B712B822B932B1F910F91ED
:103C30000C94F91D0F931F930091FF011091000246
:103C40002091010230910202602371238223932389
:103C50001F910F910C94F91D0F931F930091FF0179
:103C60001091000220910102309102026027712719
:103C7000822793271F910F910C94F91D08950C949E
:103C80003E1E0E943F1E6093FB017093FC018093D7
:103C9000FD019093FE010C941D1A60E070E0CB01D1
:103CA0000C94411E0F931F9341E050E060E070E0E0
:103CB0008A019B0104C0000F111F221F331F8A9528
:103CC000D2F7C901B8011F910F910C94411E0F93B7
:103CD0001F9341E050E060E070E004C0440F551FC6
:103CE000661F771F8A95D2F78091FB019091FC01A6
:103CF000A091FD01B091FE018A019B01082B192BB7
:103D00002A2B3B2BC901B8011F910F910C94411E26
:103D10000F931F9341E050E060E070E004C0440F57
:103D2000551F661F771F8A95D2F74095509560956D
:103D300070958091FB019091FC01A091FD01B091E3
:103D4000FE018A019B01082319232A233B23C90171
:103D5000B8011F910F910C94411E0F931F9341E0E6
:103D600050E060E070E004C0440F551F661F771FED
:103D70008A95D2F78091FB019091FC01A091FD0101
:103D8000B091FE018A019B01082719272A273B27AA
:103D9000C901B8011F910F910C94411E0F931F93FD
:103DA0000091FB011091FC012091FD013091FE0179
:103DB000602B712B822B932B1F910F910C94411E22
:103DC0000F931F930091FB011091FC012091FD01C5
:103DD0003091FE0160237123822393231F910F9161
:103DE0000C94411E0F931F930091FB011091FC0155
:103DF0002091FD013091FE016027712782279327D2
:103E00001F910F910C94411E08952FE0929F800DF9
:103E10001124A82FA695A695A695877051E001C0FC
:103E2000550F8A95EAF785E0A89FD001112420E07C
:103E300030E070E0F901EA0FFB1FE753FE4F4081CD
:103E4000CB01022E02C0969587950A94E2F7817005
:103E50009927819584278523842780832F5F3F4F6F
:103E60002530310539F708952FE0929F800D1124F8
:103E7000682F669566956695982F977085E0689F80
:103E8000B001112440E050E080E0FA01E60FF71F96
:103E9000E753FE4F208130E0092E02C0369527956A
:103EA0000A94E2F721703327042E01C0220F0A94EE
:103EB000EAF7822B4F5F5F4F4530510531F7089588
:103EC000BF92CF92DF92EF92FF920F931F93CF9307
:103ED000DF938C01C090FF01D0900002E0900102BE
:103EE000F09002028091FB019091FC01A091FD01F4
:103EF000B091FE01C82AD92AEA2AFB2ACFE1D0E0F4
:103F0000D701C6010C2E04C0B695A7959795879545
:103F10000A94D2F780FF07C0BC2EB8018C2F0E94F4
:103F2000490A019719F4219758F7B12C8B2DDF918D
:103F3000CF911F910F91FF90EF90DF90CF90BF90A6
:103F40000895CF93DF93EC010E94601FBE010E9491
:103F5000490ADF91CF9108951F93CF93DF93EB012F
:103F600090919001992321F0CB010E94A11F13C0D1
:103F7000882349F0CB010E94601F182F682FCE01C3
:103F80000E94051F04C0CB010E94341F182FBE01E0
:103F9000812F0E94490ADF91CF911F91089580914E
:103FA0000302859585958595089580910302877014
:103FB000089590910302977081E009F480E00895DC
:103FC00080912702089590912702892B80932702E0
:103FD0000895809590912702892380932702089560
:103FE00010922702089590912602892B8093260231
:103FF0000895809590912602892380932602089542
:1040000010922602089590912502892B8093250213
:104010000895809590912502892380932502089523
:1040200010922502089580910402089508950C9439
:10403000162090910402981721F0809304020C94AA
:104040001720089580910402882329F01092040219
:1040500080E00C9417200895E0911001F091110177
:10406000809127028083E0911001F09111019081ED
:1040700080912602892B8083E0911001F09111013B
:10408000908180912502892B80838091040288236E
:1040900081F0E0911001F09111019081892B8083D2
:1040A00080911001909111010E941B2181110E94A9
:1040B000222080911001909111010C94DC1408953C
:1040C0000C945F2098E0899F90011124262B209367
:1040D00003020E94671E8091030285958595859550
:1040E0000C9460201092030280E00C9460202091D8
:1040F00003028095822380930302982F977079F4AE
:1041000030E0482F082E000C550B2417350739F0E6
:104110008595859585950E94881E0C94722008953A
:104120006FEF7FEF80E090E00C94F12A80E090E068
:104130000E94CD2A21E08D3E9E4F09F020E0822F83
:10414000089582E090E00C94BF2A83E090E00C9404
:10415000BF2A84E090E00C94BF2A682F84E090E0AE
:104160000C94D32A86E090E00C94BF2A682F86E056
:1041700090E00C94D32AAB01BC018FE090E00C944A
:10418000E52AAB01BC0183E190E00C94E52A60E0F4
:1041900070E0CB010C94C12060E070E0CB010E9484
:1041A000BB200C94C7206DEE7EEF80E090E00E9473
:1041B000F12A60E082E090E00E94D32A60E083E090
:1041C00090E00E94D32A1092FF01109200021092F8
:1041D00001021092020260E084E090E00E94D32A83
:1041E00060E085E090E00E94D32A60E086E090E005
:1041F0000E94D32A6FEF87E090E00E94D32A40E02C
:1042000050E0BA0188E090E00E94E52A60E08DE08D
:1042100090E00E94D32A40E050E0BA0188E190E0AB
:104220000E94E52A60E087E190E00E94D32A0C9486
:10423000CC200C94D320FC01329680911C01882361
:1042400031F08091570387FF02C09EE101C096E0E4
:1042500080E0915028F021912223D9F38F5FF9CF8C
:1042600008959C01FC0132969FEF80E04191461732
:1042700089F09F3F19F4411101C0982F8F5F86305C
:10428000A9F79F3F39F0F901E90FF11D97FDFA9564
:10429000628308950895FC013296089620812613C2
:1042A00001C010823196E817F907C1F70895262F4B
:1042B0002695269526952E3168F4FC01E20FF11D16
:1042C000677021E030E001C0220F6A95EAF7828131
:1042D000282B22830895262F2695269526952E3164
:1042E00070F4FC01E20FF11D677021E030E001C0C5
:1042F000220F6A95EAF72095828128232283089568
:1043000020911C01222329F02091570327FD0C94B2
:1043100057210C94312120911C01222329F0209156
:10432000570327FD0C946B210C944B2120911C0109
:10433000FC013296222331F08091570387FF02C09F
:104340008EE101C086E0DF011D928A95E9F70895AC
:1043500008950C94A8210E94A92180915E038430C5
:1043600009F43CC01092290220E488E190E00FB6E5
:10437000F894A895809360000FBE2093600080E0C1
:104380000E94950780E00E9411080E944B138091C3
:104390002A0281110AC081E080932A0280914F0293
:1043A000817080932B020E9479120E94A92183B709
:1043B000817F846083BF83B7816083BF7894889551
:1043C00083B78E7F83BF0FB6F894A8958091600065
:1043D000886180936000109260000FBE0895089578
:1043E0000895CF930E94EF210E94310D0E94F02189
:1043F000C0E08C2F0E94DC0C892B29F4CF5FC530E4
:10440000C1F780E001C081E0CF91089508950C9438
:1044100006220E942B1A0E94E7220E94D0140E94BA
:10442000110810922A0280912B0281110E944313DD
:104430000E948B120C9407221F920F920FB60F92BC
:1044400011248F939F93AF93BF9380912902811181
:1044500013C08091530390915403A0915503B091E0
:1044600056034196A11DB11D8093530390935403AD
:10447000A0935503B0935603BF91AF919F918F9135
:104480000F900FBE0F901F90189582E084BD93E0AF
:1044900095BD9AEF97BD80936E0008952FB7F8945D
:1044A0008091530390915403A0915503B09156030A
:1044B0002FBF0895CF92DF92EF92FF920F931F9339
:1044C0002FB7F894409153035091540360915503D2
:1044D000709156032FBF6A017B01EE24FF248C01EB
:1044E00020E030E0C016D106E206F30610F4415099
:1044F00051099A01281B390BC9011F910F91FF9097
:10450000EF90DF90CF90089578941F920F920FB69E
:104510000F9211248F939F93AF93BF938091530376
:1045200090915403A0915503B09156030196A11D9B
:10453000B11D8093530390935403A0935503B093FC
:104540005603BF91AF919F918F910F900FBE0F9027
:104550001F90189581E08093E00080E28093D8005E
:104560001092C9008FE19EE40197F1F700C00000AE
:1045700087E090EBDC018093670390936803A0933E
:104580006903B0936A039CE088E10FB6F894A8959C
:10459000809360000FBE90936000FFCF0E94962032
:1045A000811102C00E9419210E94A120809328023B
:1045B0000E94A92090E090935803809357030E9493
:1045C000A520682F70E080E090E00C94061E0E9409
:1045D0009620811102C00E9419210E94B22080936E
:1045E0005903282F269530E02430310524F08170BE
:1045F0008660809359038091590380FF02C086959D
:1046000001C080E00C94950720915903822F869574
:10461000482F50E04330510544F48F5F982F990F95
:10462000822F8170892B8093590380915903816077
:10463000809359030E94B6208091590386950C946B
:10464000950780915903982F969591F09158990F5D
:104650008170892B809359038E7F91E009F490E05B
:104660008091590390FB80F9809359030E94B620F2
:104670008091590386950C9495078091590380FD8C
:1046800011C0816080935903813019F483E08093D5
:104690005903809159030E94B62080915903869551
:1046A0000C94950708958091590380FF08C08E7F70
:1046B000809359030E94B62080E00C9495070895DA
:1046C0008091590380FD0C9453230C943D239091C9
:1046D0005903892F86958F5F8F779170843028F4E6
:1046E000880F892B8093590302C0909359038091BE
:1046F00059038E7F91E009F490E08091590390FB7B
:1047000080F9809359030E94B620809159038695C1
:104710000C949507843008F083E0880F909159033A
:104720009170892B809359038E7F91E009F490E07A
:104730008091590390FB80F9809359030E94B62021
:104740008091590386950C94950780914C020895A9
:10475000089508950895CF93DF93EC010E947F257B
:10476000823011F08430D9F580911C01882339F012
:104770008091570387FF03C060E282E002C068E0D7
:1047800081E08093E9008FEF9091E800815095FDE2
:1047900006C095ED9A95F1F700008111F5CF809153
:1047A000E80085FF1CC080911C01811105C040E01C
:1047B00050E068E070E003C070E040E050E0CE01FF
:1047C0000E949C258091E8008E778093E80080E22B
:1047D000FE01ACE2B2E001900D928A95E1F7DF9123
:1047E000CF91089580915D03811109C00E94312706
:1047F0000E948E278091E20084608093E2000895F9
:1048000010925D030895089508950C94092242E0E2
:1048100061EC81E00E94AB2642E261EC82E00C9404
:10482000AB2680916003833009F460C030F481309E
:1048300071F0823009F499C008958A3009F485C076
:104840008B3009F46BC0893009F0A7C020C080917B
:104850005F03813A09F0A1C08091E800877F8093CF
:10486000E8008091630390916403892B21F460E256
:104870008CE292E003C060E080E090E070E00E9493
:10488000E7258091E8008B778093E8000895809178
:104890005F03813209F081C08091630390916403CA
:1048A000029708F07AC08091E800877F8093E80043
:1048B0008091E80082FD05C080915E038111F8CFF0
:1048C0006CC02091F3008091F20090E0922B02974F
:1048D00029F48091F1008B7F813021F48091F100E7
:1048E00080934C028091E8008B7753C080915F03E6
:1048F000813A09F052C08091630390916403892B3F
:1049000009F04BC08091E800877F8093E800809198
:10491000E80080FFFCCF80911C0136C080915F03CE
:104920008132D9F58091630390916403892BA9F5B5
:104930008091E800877F8093E8000E94E0268091C4
:10494000610380931C010C942B1A80915F038132C8
:1049500021F58091E800877F8093E8000E94E0269F
:104960008091620380934D02089580915F03813AA4
:10497000A1F48091E800877F8093E8008091E800AF
:1049800080FFFCCF80914D028093F1008091E80080
:104990008E778093E8000C94E026089584B7877F93
:1049A00084BF0FB6F894A8958091600088618093C9
:1049B0006000109260000FBE80E88093610010924A
:1049C00061000E9430150E9431270E948E2780913D
:1049D000E20084608093E20078940E941D2A0E9485
:1049E000381582E191E00E94CB1480915E038530FE
:1049F00069F40E94AB2180915C038823B1F30E948B
:104A0000F121882391F30E948625EFCF0E9444155F
:104A10000E944E13EACF0C940D25292F3327233003
:104A20003105C9F064F42130310581F022303105BF
:104A300009F04CC08BE390E021EF3CE04BC0213209
:104A4000310521F12232310589F140C082E190E047
:104A50002CE23DE03FC099278130910571F02CF4A4
:104A6000892BA1F5EDEEFCE00DC08230910541F0FF
:104A7000039761F5E1ECFCE005C0EDEDFCE002C060
:104A8000E7ECFCE0849190E09F0124C06115710582
:104A900041F061307105D1F489E090E02CE13DE016
:104AA00019C089E090E023E03DE014C06115710574
:104AB00041F06130710551F48BE390E02EE33DE06D
:104AC00009C080E490E029E73DE004C080E090E088
:104AD00020E030E0FA013183208308950895CF93D8
:104AE000C82F0E946E25C0934E02CF9108958091E9
:104AF0005E03843011F081E0089582E00895809192
:104B00004E02811102C00C947725089580E189BD81
:104B100082E189BD09B400FEFDCF8091D8008F7D70
:104B20008093D8008091E00082608093E0008091C3
:104B3000E00081FDFCCF0895CF92DF92EF92FF92CB
:104B40000F931F93CF93DF93EC018B016A010E94B7
:104B5000FF26811133C0C114D10439F0F6018081E0
:104B60009181081B190BC80FD91FE12CF12C0115DD
:104B7000110519F18091E80085FD16C08091E800CB
:104B80008E778093E800C114D10449F0F60180814A
:104B90009181E80EF91EF182E08285E00FC00E944B
:104BA000FF26882321F30AC089918093F1000150E8
:104BB0001109FFEFEF1AFF0ADACF80E0DF91CF9102
:104BC0001F910F91FF90EF90DF90CF90089520916B
:104BD0006503309166032617370748F061157105A4
:104BE00039F42091E8002E772093E80001C0B90144
:104BF00040E061157105A9F120915E03222309F4BB
:104C000043C0253009F442C02091E80023FD40C094
:104C10002091E80022FD32C02091E80020FFE9CF7A
:104C20004091F3002091F20030E0342BFC01CF01E1
:104C30006115710559F02830310540F48191809358
:104C4000F100615071092F5F3F4FF1CF41E02830F3
:104C5000310509F040E02091E8002E772093E8002C
:104C6000C8CF4111C9CF0AC080915E03882361F08B
:104C7000853061F08091E80083FD0AC08091E800F2
:104C800082FFF2CF80E0089582E0089583E00895E6
:104C900081E0089520916503309166032617370758
:104CA00048F06115710539F42091E8002E772093C2
:104CB000E80001C0B901FC0120E06115710591F126
:104CC00080915E03882309F440C0853009F43FC019
:104CD0008091E80083FD3DC08091E80082FD2FC0F7
:104CE0008091E80080FFE9CF2091F3008091F200ED
:104CF00090E0922B6115710559F08830910540F4D0
:104D000024912093F1003196615071090196F2CF00
:104D100021E0089709F020E08091E8008E778093E9
:104D2000E800CBCF2111CCCF0AC080915E0388234D
:104D300061F0853061F08091E80083FD0AC08091C8
:104D4000E80082FFF2CF80E0089582E0089583E0DA
:104D5000089581E00895982F973058F59093E900D1
:104D6000981739F07091EC002091ED005091F0000F
:104D700003C0242F762F50E021FF19C03091EB00A3
:104D80003E7F3093EB003091ED003D7F3093ED009E
:104D90003091EB0031603093EB007093EC00209386
:104DA000ED005093F0002091EE0027FF07C09F5FB9
:104DB000D3CF8F708093E90081E0089580E008955B
:104DC00080915F0387FF11C08091E80082FD05C0DC
:104DD00080915E038111F8CF11C08091E8008B773C
:104DE0000BC080915E03882349F08091E80080FF2A
:104DF000F8CF8091E8008E778093E80008952091A5
:104E0000E4003091E50095E64091EC00842F81703C
:104E100040FF22C08091E80080FD1CC080915E03AD
:104E2000882391F0853091F08091EB0085FD10C0D2
:104E30004091E4005091E5004217530729F39A018D
:104E4000915011F784E0089582E0089583E0089579
:104E500081E0089580E008954091E80042FFDECFB0
:104E600008950E949F270E94A727E0EEF0E080812E
:104E700081608083E8EDF0E080818F77808319BCCA
:104E8000A7EDB0E08C918E7F8C9380818F7E8083A4
:104E900010925D0308950F931F93CF93DF930E94A9
:104EA0009F270E94A727C8EDD0E088818F7788834D
:104EB00088818068888388818F7D888319BC10925F
:104EC0005E0310925A0310925C0310925B0300EE93
:104ED00010E0F80180818B7F8083888181608883E6
:104EE00042E060E080E00E94AB26E1EEF0E08081ED
:104EF0008E7F8083E2EEF0E080818160808380811C
:104F000088608083F80180818E7F808388818061C2
:104F10008883DF91CF911F910F910895E8EDF0E024
:104F200080818F7E8083E7EDF0E0808181608083E7
:104F300084E082BF81E080935D030C944B27E8ED11
:104F4000F0E080818E7F80831092E20008951092BD
:104F5000DA001092E10008951F920F920FB60F929F
:104F600011242F933F934F935F936F937F938F936E
:104F70009F93AF93BF93EF93FF938091E10082FFE4
:104F80000BC08091E20082FF07C08091E1008B7F1F
:104F90008093E1000E941C2A8091DA0080FF1FC0EC
:104FA0008091D80080FF1BC08091DA008E7F8093B3
:104FB000DA008091D90080FF0DC080E189BD82E1D7
:104FC00089BD09B400FEFDCF81E080935E030E949D
:104FD000F22305C019BC10925E030E940024809148
:104FE000E10080FF19C08091E20080FF15C0809130
:104FF000E2008E7F8093E2008091E20080618093E6
:10500000E2008091D80080628093D80019BC85E0CE
:1050100080935E030E9404248091E10084FF30C0ED
:105020008091E20084FF2CC080E189BD82E189BDCE
:1050300009B400FEFDCF8091D8008F7D8093D80009
:105040008091E1008F7E8093E1008091E2008F7E6D
:105050008093E2008091E20081608093E200809181
:105060005A03882311F084E007C08091E30087FD94
:1050700002C081E001C083E080935E030E940524AA
:105080008091E10083FF29C08091E20083FF25C069
:105090008091E100877F8093E10082E080935E034E
:1050A00010925A038091E1008E7F8093E1008091FD
:1050B000E2008E7F8093E2008091E2008061809325
:1050C000E20042E060E080E00E94AB268091F000C8
:1050D00088608093F0000E940324FF91EF91BF91BC
:1050E000AF919F918F917F916F915F914F913F9180
:1050F0002F910F900FBE0F901F9018951F920F9237
:105100000FB60F9211242F933F934F935F936F939A
:105110007F938F939F93AF93BF93CF93DF93EF933F
:10512000FF93C091E900CF708091EC00D82FD1702F
:1051300080FDD0E81092E9008091F000877F809395
:10514000F00078940E94C2281092E9008091F0004B
:1051500088608093F000CD2BCF70C093E900FF9161
:10516000EF91DF91CF91BF91AF919F918F917F91FF
:105170006F915F914F913F912F910F900FBE0F90C4
:105180001F9018951F93CF93DF93CDB7DEB7AA97E3
:105190000FB6F894DEBF0FBECDBFEFE5F3E088E0B9
:1051A0008E0F9091F10091938E13FBCF0E941124EA
:1051B0008091E80083FF28C180915F039091600394
:1051C000492F50E04A30510508F01EC1FA01E5565A
:1051D000FF4F0C94922A803821F0823809F014C1D4
:1051E00008C080915B0390915C03992389F08260F1
:1051F0000FC0809163038F70873008F005C18093E2
:10520000E9008091EB0085FB882780F91092E90086
:105210009091E800977F9093E8008093F1001092BE
:10522000F100D0C0282F2D7F09F0EEC0882319F09F
:10523000823061F0E9C080916103813009F0E4C0FF
:10524000933009F080E080935C032EC0809161036D
:1052500081112AC0809163038F702FEF280F2630B1
:1052600008F0D2C08093E9002091EB0020FF1CC021
:10527000933021F48091EB00806214C09091EB0098
:1052800090619093EB0021E030E0A90102C0440F4F
:10529000551F8A95E2F74093EA001092EA00809148
:1052A000EB0088608093EB001092E9008091E800A9
:1052B000877F8093E8000E94E026A6C08111A4C0E9
:1052C000109161031F778091E3008078812B809398
:1052D000E3008091E800877F8093E8000E94E02649
:1052E0008091E80080FFFCCF8091E300806880938C
:1052F000E300111102C082E001C083E080935E03ED
:1053000083C08058823008F07FC080916103909103
:1053100062038C3D53E0950779F583E08A838AE246
:1053200089834FB7F894DE01139620E03EE051E206
:10533000E32FF0E050935700E49120FF03C0E29583
:10534000EF703F5FEF708E2F90E0EA3010F0C7965D
:1053500001C0C0968D939D932F5F243149F74FBFB5
:105360008091E800877F8093E8006AE270E0CE01D8
:1053700001960E94E72515C0609163037091640354
:10538000AE014F5F5F4F0E940B25BC01892BE1F1FD
:105390009091E800977F9093E80089819A810E941C
:1053A0004A268091E8008B778093E8002DC08038F2
:1053B00059F58091E800877F8093E80080915A0337
:1053C0008093F1008091E8008E7773CF81111CC02B
:1053D000909161039230C0F48091E800877F8093C0
:1053E000E80090935A030E94E02680915A038111AD
:1053F00006C08091E30087FD02C081E001C084E027
:1054000080935E030E9407248091E80083FF0AC016
:105410008091E800877F8093E8008091EB008062B4
:105420008093EB00AA960FB6F894DEBF0FBECDBFF7
:10543000DF91CF911F9108950895CF9380915E03DE
:105440008823A1F0C091E900CF709091EC00892FE2
:10545000817090FD80E8C82B1092E9008091E800EF
:1054600083FD0E94C228CF70C093E900CF910895B8
:10547000DB018F939F930E94A72ABF91AF91A29FB8
:10548000800D911DA39F900DB29F900D1124089542
:10549000AA1BBB1B51E107C0AA1FBB1FA617B7075A
:1054A00010F0A61BB70B881F991F5A95A9F7809576
:1054B0009095BC01CD01089597FB072E16F400943A
:1054C00007D077FD09D00E94482A07FC05D03EF49A
:1054D000909581959F4F0895709561957F4F0895A0
:1054E000A1E21A2EAA1BBB1BFD010DC0AA1FBB1FE8
:1054F000EE1FFF1FA217B307E407F50720F0A21B5A
:10550000B30BE40BF50B661F771F881F991F1A94C6
:1055100069F760957095809590959B01AC01BD01F0
:10552000CF010895EE0FFF1F0590F491E02D09942F
:10553000A29FB001B39FC001A39F700D811D1124D4
:10554000911DB29F700D811D1124911D08950E941F
:10555000982AA59F900DB49F900DA49F800D911D3A
:1055600011240895FC014150504030F0019006167E
:10557000D1F73197CF010895882799270895F99990
:10558000FECF92BD81BDF89A992780B50895A6E116
:10559000B0E044E050E00C94F92AA8E1B0E042E029
:1055A00050E00C94F92A262FF999FECF92BD81BDC7
:1055B000F89A019700B4021639F01FBA20BD0FB651
:1055C000F894FA9AF99A0FBE08950396272F0E942D
:1055D000D42A0E94D32A252F0E94D42A242F0C9447
:1055E000D42A0196272F0E94D42A0C94D32ADC01B6
:1055F000CB01FC01F999FECF06C0F2BDE1BDF89ADE
:10560000319600B40D9241505040B8F70895F89487
:02561000FFCFCA
:10561200010255555501191A1B1C1D1E1F2021225E
:105622000502A523AB23A823A923AA2301F6F5F497
:10563200F1C69593929190949697343530336736AC
:1056420066000102020202060606090909090909A1
:105652000F0F0F0F0F0F1515151819191919191901
:0656620019191919232497
:00000001FF
